:100000000C9499000C9402220C9402220C9402226B
:100010000C9402220C94FE190C9402220C940222DD
:100020000C9402220C9402220C9402220C940222C0
:100030000C9402220C9402220C94251D0C94022292
:100040000C9402220C9402220C9402220C940222A0
:100050000C9402220C9402220C9402220C94022290
:100060000C9402220C9402220C9402220C94022280
:100070000C9402220C9402220C9402220C94022270
:100080000C9402220C9402220C9402220C94022260
:100090000C9402220C9402220C9402220C94022250
:1000A0000C9402220C9402220C9402220C94022240
:1000B0000C9402220C9402220C9402220C94022230
:1000C0000C9402220C9402220C9402220C94022220
:1000D0000C9402220C9402220C9402220C94022210
:1000E0000C9402220C9402220C9402220C94022200
:1000F0000C940222AB14B914C814D714E614F514E6
:1001000004151315981D9D1DA21DA71DAC1DB11D25
:10011000B61DBB1D400040228040224033004412E7
:100120004033405180405140550044234055405891
:10013000800011241FBECFEFCDBFDFE7DEBFE4E1BB
:10014000F1E041E019C0B791A7913791279107914C
:1001500007FD0EC097918791EF01F92FE82F0BBF94
:1001600007900D92A217B307D9F7FE011BBE04C07A
:100170001D92A217B307E1F7E133F40721F70E94BC
:0A01800087120C942F21F894FFCF92
:10018A0066616E300043686F6F7365206D616E75CE
:10019A00616C6C792074686520737472656E67741B
:1001AA0068206F662066616E2030207573696E67FD
:1001BA002074686520666F6C6C6F77696E67206360
:1001CA006F6D6D616E64733A203C686967683C2C98
:1001DA00203C6D656469756D3E2C203C6C6F773EE2
:1001EA0020616E64204241434B20696620796F7515
:1001FA002077616E74206261636B20746F2074686B
:10020A0065206D61696E206D656E750D0066616EA3
:10021A00310043686F6F7365206D616E75616C6C38
:10022A00792074686520737472656E677468206FCC
:10023A00662066616E2031207573696E6720746866
:10024A006520666F6C6C6F77696E6720636F6D6D82
:10025A00616E64733A203C686967683C2C203C6D87
:10026A00656469756D3E2C203C6C6F773E20616E2B
:10027A0064204241434B20696620796F752077617B
:10028A006E74206261636B20746F20746865206DE0
:10029A0061696E206D656E750D0066616E32004390
:1002AA00686F6F7365206D616E75616C6C7920740F
:1002BA00686520737472656E677468206F6620665D
:1002CA00616E2032207573696E67207468652066D6
:1002DA006F6C6C6F77696E6720636F6D6D616E64AA
:1002EA00733A203C686967683C2C203C6D656469F8
:1002FA00756D3E2C203C6C6F773E20616E64204207
:10030A0041434B20696620796F752077616E7420AE
:10031A006261636B20746F20746865206D61696E19
:10032A00206D656E750D0066616E330043686F6FF0
:10033A007365206D616E75616C6C792074686520D7
:10034A00737472656E677468206F662066616E20CA
:10035A0033207573696E672074686520666F6C6CEC
:10036A006F77696E6720636F6D6D616E64733A2093
:10037A003C686967683C2C203C6D656469756D3E14
:10038A002C203C6C6F773E20616E64204241434BC7
:10039A0020696620796F752077616E7420626163C7
:1003AA006B20746F20746865206D61696E206D65BD
:1003BA006E750D0066616E340043686F6F73652059
:1003CA006D616E75616C6C792074686520737472E6
:1003DA00656E677468206F662066616E20342075CA
:1003EA0073696E672074686520666F6C6C6F7769D5
:1003FA006E6720636F6D6D616E64733A203C686945
:10040A0067683C2C203C6D656469756D3E2C203C08
:10041A006C6F773E20616E64204241434B206966CF
:10042A0020796F752077616E74206261636B207426
:10043A006F20746865206D61696E206D656E750D3B
:10044A000066616E350043686F6F7365206D616E7B
:10045A0075616C6C792074686520737472656E6757
:10046A007468206F662066616E2035207573696E28
:10047A00672074686520666F6C6C6F77696E672099
:10048A00636F6D6D616E64733A203C686967683C9E
:10049A002C203C6D656469756D3E2C203C6C6F7731
:1004AA003E20616E64204241434B20696620796F89
:1004BA00752077616E74206261636B20746F20749B
:1004CA006865206D61696E206D656E750D0042412B
:1004DA00434B0052657475726E696E6720746F20A3
:1004EA004D61696E204D656E752E2E2E0D0A002EF9
:1004FA002E2E57656C636F6D6520746F2074686566
:10050A00206D61696E206D656E752E2E2E0D0A00A6
:10051A00796F752063616E2063686F6F73652074ED
:10052A006F20656E74657220746865205354415457
:10053A0055532C204D414E55414C20616E6420414B
:10054A0055544F4D41544943207375626D656E751C
:10055A00730D0A0061203D206175746F2C206D2097
:10056A003D206D616E75616C20616E642073203D63
:10057A00207374617475730D0A00496E76616C6933
:10058A006420636F6D6D616E640D0A006869676847
:10059A000046616E203020506F77657220484947C7
:1005AA00480D0A006D656469756D0046616E2030FC
:1005BA0020506F776572204D454449554D0D0A000C
:1005CA006C6F770046616E203020506F776572201D
:1005DA004C4F570D0A0043686F6F7365207768693F
:1005EA0063682066616E20796F752077616E74206A
:1005FA00746F20636F6E74726F6C2C20636F6D6DF5
:10060A00616E646F203C66616E6E3E20656B733A64
:10061A002066616E300D0A0046616E203120506FEF
:10062A0077657220484947480D0A0046616E2031B5
:10063A0020506F776572204D454449554D0D0A008B
:10064A0046616E203120506F776572204C4F570DEE
:10065A000A0046616E203220506F77657220484941
:10066A0047480D0A0046616E203220506F77657246
:10067A00204D454449554D0D0A0046616E203220F1
:10068A00506F776572204C4F570D0A0046616E20F5
:10069A003320506F77657220484947480D0A004653
:1006AA00616E203320506F776572204D454449555D
:1006BA004D0D0A0046616E203320506F7765722017
:1006CA004C4F570D0A0046616E203420506F7765F3
:1006DA007220484947480D0A0046616E203420506E
:1006EA006F776572204D454449554D0D0A004661A4
:1006FA006E203420506F776572204C4F570D0A00D8
:10070A0046616E203520506F776572204849474808
:10071A000D0A0046616E203520506F776572204DB4
:10072A00454449554D0D0A0046616E203520506FEB
:10073A00776572204C4F570D0A0066616E50726FD2
:10074A0073656E743A2025750A0074656D703A20D7
:10075A00252E32660A00746172676574204E414321
:10076A004B006175746F0046616E206973206E6F6D
:10077A007720676F696E67206175746F6D61746940
:10078A0063616C6C790D0A000A0046616E303A00AA
:10079A0052554E54494D453A2025750A0054454D47
:1007AA0050455241545552453A2025750A00525037
:1007BA004D3A2025750A0046616E313A0046616E4F
:1007CA00323A0046616E333A0046616E343A004668
:1007DA00616E353A0066616E360046616E363A00E1
:1007EA0066616E370046616E373A007265736574EA
:1007FA00300046616E20302072756E74696D652016
:10080A0072657365740D00726573657431004661B3
:10081A006E20312072756E74696D6520726573651C
:10082A00740D007265736574320046616E20322061
:10083A0072756E74696D652072657365740D0072E8
:10084A0065736574330046616E20332072756E7469
:10085A00696D652072657365740D007265736574E0
:10086A00340046616E20342072756E74696D65209D
:10087A0072657365740D007265736574350046613F
:10088A006E20352072756E74696D652072657365A8
:10089A00740D007265736574360046616E203620E9
:1008AA0072756E74696D652072657365740D007278
:1008BA0065736574370046616E20372072756E74F1
:1008CA00696D652072657365740D0057656C636F99
:1008DA006D6520746F20746865206D61696E206D86
:1008EA00656E752C20796F752063616E2063686F61
:1008FA006F736520746F20656E7465722074686505
:10090A00205354415455532C204D414E55414C20AF
:10091A00616E64204155544F4D41544943207375CB
:10092A00626D656E75730D0A00496E707574207478
:10093A006F6F206C6F6E670D0A007300456E7465E9
:10094A0072696E6720737461747573207375626D52
:10095A00656E752E2E2E0D0A0063686F6F73652003
:10096A0046616E20302D3E372077697468203C66D8
:10097A00616E6E3E2E203C72657365746E3E207405
:10098A006F20746F2072657365742072756E746956
:10099A006D652E203C4241434B3E20746F207265A8
:1009AA007475726E20746F206D61696E206D656E4C
:1009BA0075200D006D00456E746572696E67206D55
:1009CA00616E75616C207375626D656E752E2E2E63
:1009DA000D0A0063686F6F73652046616E20302DC3
:1009EA003E372077697468203C66616E6E3E2E2021
:1009FA003C4241434B3E20746F2072657475726E9F
:100A0A0020746F206D61696E206D656E75200D0A08
:100A1A00006100456E746572696E67206175746F56
:100A2A006D61746963207375626D656E752E2E2E05
:100A3A000D0A0042696E6172792025643A20002508
:020A4A00640046
:100A4C0068076C094C836A9074A07AC0008068882F
:060A5C0000846C820081A1
:100A6200494E4600696E66004E414E006E616E0050
:070A7200286E756C6C290071
:060A7900286E696C2900E3
:100A8000A8E2B0E0E6E4F5E00C94E11F89A39AA3A4
:100A9000688F798F2A8FFB010190F081E02DED871F
:100AA000FE87FB010280F381E02DEB83FC83FB01D9
:100AB0000480F581E02DEC8BFD8BFB010084F1853A
:100AC000E02DEDA3FEA3FB010680F781E02DE98375
:100AD000FA83FA01408051806280738020E030E028
:100AE000A901C301B2010E94ED2187FF06C077FA78
:100AF000709477F870948DE204C0FD85F2FF75C3A1
:100B00008BE2E981FA8180832C893D89215031096A
:100B10002F83388741E050E04A8B5B8B06C08C897D
:100B20009D898F8398871A8A1B8AD301C201BF7758
:100B30000097E0E8AE07EFE7BE07E1F42A8D022E4A
:100B4000000C330B2154310989819A814A895B89D0
:100B5000840F951F2A31310520F442E65AE060E007
:100B600003C046E65AE060E00E94FE2066E67AE0B6
:100B700080E01FC00197A048BF4738F12A8D022EA0
:100B8000000C330B2154310989819A814A895B8990
:100B9000840F951F2A31310520F44AE65AE060E0BF
:100BA00003C04EE65AE060E00E94FE206EE67AE066
:100BB00080E00E94BD20E981FA81AF0160E8ED8408
:100BC000FE840C891D899C0108C320E030E0A90146
:100BD000C301B2010E94ED21812C912C20E8A22EAC
:100BE0002FE3B22E212C312C882309F488C04986AA
:100BF0005A866B867C8620E030E040E251E4C501F5
:100C0000B4010E94FB216B017C01D301C2018C194C
:100C10009D09AE09BF09B7FF07C0B095A095909593
:100C200081959F4FAF4FBF4F0297A105B10534F497
:100C3000FFEF2F1A3F0A46015701DDCFA3019201B2
:100C4000C701B6010E94ED2187FDF2CFC984DA8485
:100C5000EB84FC84C818D908EA08FB082FEFC21AF5
:100C6000D20AE20AF20A33E0C316D104E104F10425
:100C700008F443C000E010E0A3019201C501B401F3
:100C80000E94F2211816DCF544ED24164EEF3406CE
:100C9000CCF401151105B1F420E030E040E85AE54C
:100CA000C301B2010E94FB212B013C0120E030E096
:100CB00040E85AE5C501B4010E94FB214B015C01EB
:100CC00001E010E020E030E040E251E4C501B40171
:100CD0000E94F7214B015C0151E0251A3108D30134
:100CE000C20188199909AA09BB090196A11DB11D64
:100CF0000397A105B10508F0BFCF240135018A8D06
:100D0000082E000C990B8A8F9B8F0E94A82188A324
:100D1000EB81FC81F7FD03C0E987FA8704C026E078
:100D200030E029873A8738A1373651F44B815C810E
:100D3000452B09F05FC281E090E089879A875AC20B
:100D400028A1298B04C037FE66C236E6398B498557
:100D50005A854F5F5F4F49875A875989563699F4AC
:100D600037FE08C0812C912C90E8A92E9FE3B92E64
:100D7000212C312C88A1873631F0E985FA85E20DE6
:100D8000F31DE987FA8788A69FA2AB82BF8673010D
:100D900062011E8A1F8A4E895F8989859A85481754
:100DA0005907E4F528A53FA14B815F85C701B6012E
:100DB0000E94F7210E940E146C8F7D8F8E8F9F8F63
:100DC0000E94BF216BA38701760117FB109517F9CD
:100DD000109528A53FA14B815F856C8D7D8D8E8DF3
:100DE0009F8D0E9470136B017C01F7FAF094F7F865
:100DF000F09420E030E040E251E468A57FA18B81CF
:100E00009F850E94F72168A77FA38B839F872E89E8
:100E10003F892F5F3F4F2E8B3F8BBDCF20E030E0CF
:100E200040EA50E468A57FA18B819F850E94FB2149
:100E30006B837C838D839E839B01AC01C701B601CC
:100E40000E94ED2187FD0DC02B813C814D815E818B
:100E5000C701B6010E94ED21811107C09BA190FD41
:100E600004C01B821C821D821E82A30192016B8121
:100E70007C818D819E810E94B9212B013C0120E063
:100E800030E040E251E4C501B4010E94FB216B83D4
:100E90007F87D82EC92E9B01482F592FC301B2013D
:100EA0000E94F22187FD11C0EFEF2E1A3E0AF98948
:100EB000F63679F429853A852F5F3F4F29873A879F
:100EC0003B813FA34F8548A70BC08B829F86DA2CBE
:100ED000CB2C5989553631F08B818FA39F8598A7EC
:100EE000410106C0EB81EFA3FF85F8A7812C912C6F
:100EF000AA88BB88E12CF12C1E8A1F8A1F86188ABB
:100F00002D853E85207133272BA33CA32F8538895F
:100F100049855A852417350734F08E899F89892B96
:100F200009F4A0C0ACC08501E88DF98D808591855C
:100F30000597A816B90688F72FA138A54D2D5C2D69
:100F4000C301B2010E94F7210E940E146C8F7D8FA5
:100F50008E8F9F8F0E94BF216A30710514F069E067
:100F600070E04BA15CA1452B69F46115710551F44A
:100F700058A1573639F497FE05C0C70101968B83F7
:100F80009C8341C0EE89FF89EF2BA9F497FE13C023
:100F9000FFEFAF1ABF0AE981FA81E00FF11F2EE2DD
:100FA00020834F815885415051094F83588781E0F4
:100FB00090E08E8B9F8BE981FA81EA0DFB1DEB821D
:100FC000FC824B815C81452B49F090E391932B810E
:100FD0003C81215031092B833C83F3CFC7018A0D1B
:100FE0009B1D2F8138852E193F095C015FEFA51AE3
:100FF000B50AE981FA81E80FF91F605D6083C901D4
:1010000001978F8398878301720117FB109517F959
:1010100010952FA138A54D2D5C2D6C8D7D8D8E8D5D
:101020009F8D0E9470132B013C0177FA709477F822
:10103000709420E030E040E251E46FA178A58D2D5E
:101040009C2D0E94F7216FA378A7D82EC92E91E07E
:10105000891A9108EF85F8893196EF87F88BEB8034
:10106000FC8054CFFD85F4FF0AC0E981FA81EA0DC6
:10107000FB1D8EE2808395012F5F3F4F590149810F
:101080005A814A0D5B1D4B835C83FA011082F989FA
:10109000F53609F061C0E981FA812DA13EA1E20F88
:1010A000F31F3197108237FE06C031942194310826
:1010B00001E010E002C000E010E0EDA1FEA13197D8
:1010C00049815A81E40FF51F22E030E08AE0E82EE2
:1010D000F12CCF0149815A81841B950B21143104D5
:1010E00079F0C101B7010E948220805D82931B01CB
:1010F000215031098F81988501978F839887E9CF97
:101100001216130674F3FC013197E40FF51F012B3F
:1011100011F42BE201C02DE220830297E981FA81CC
:10112000E80FF91F2A8D3B8D215431092A313105F1
:1011300010F025E601C025E420832F813885225058
:1011400031092F833887A816B90634F4AF0160E857
:101150008B819C810E94FE2049815A813A0180E85E
:10116000882E9D8591FF2EC090FD2CC0EF81F885C3
:101170001E161F063CF5882DB3010E94BD20298153
:101180003A81820F931F9C0149815A81241B350BA0
:10119000EA89FB892E173F074CF0FC012081EF8183
:1011A000F885E80FF91F20830197EDCF4F8158850F
:1011B00060E370E089819A818E0F9F1F0E947D21DC
:1011C0001C8A1D8A882DB3010E94BD20ED84FE84F7
:1011D0000C891D899C01682DA30189A19AA10E94F7
:1011E0004C1AA896E2E10C942A205D8553FF97CC17
:1011F00080E287CC2CEF22162FEF32064CF0E985E7
:10120000FA852E163F060CF49ECDF5E6F98BBBCD84
:0C12100035E6398BB8CD46E6498BB5CDEC
:10121C00CF92DF92EF921F93CF93DF936B01E82E67
:10122C002AE831E040E00E94D71E892B09F045C026
:10123C0080E00E948F1DD82F192F80E090E00E9433
:10124C00AA20C82EC92F60E070E0CB010E94592063
:10125C00E62ED72E62E977E080E00E94EF1C64E96D
:10126C0077E080E00E94EF1C62E977E080E00E946A
:10127C00EF1C1F93DF938AE997E0A0E0AF939F9355
:10128C008F930E94AF1FCF93CF9287EA97E0A0E095
:10129C00AF939F938F930E94AF1FDF92EF9288EBD7
:1012AC0097E0A0E0AF939F938F930E94AF1F8DB7F1
:1012BC009EB70F968DBF9EBFE7C227E132E040E09C
:1012CC008E2DB6010E94D71E892B09F046C081E0F5
:1012DC000E948F1DD82EC92E81E090E00E94AA207A
:1012EC00182FE92E61E070E080E090E00E94592018
:1012FC00C62FD72F62E977E080E00E94EF1C61ECEB
:10130C0077E080E00E94EF1C62E977E080E00E94C9
:10131C00EF1CCF92DF928AE997E0A0E0AF939F9306
:10132C008F930E94AF1FEF921F9387EA97E0A0E084
:10133C00AF939F938F930E94AF1FDF93CF9388EB54
:10134C0097E0A0E0AF939F938F930E94AF1F8DB750
:10135C009EB70F968DBF9EBF97C224EA32E040E045
:10136C008E2DB6010E94D71E892B09F046C082E053
:10137C000E948F1DD82EC92E82E090E00E94AA20D8
:10138C00182FE92E62E070E080E090E00E94592076
:10139C00C62FD72F62E977E080E00E94EF1C67EC44
:1013AC0077E080E00E94EF1C62E977E080E00E9429
:1013BC00EF1CCF92DF928AE997E0A0E0AF939F9366
:1013CC008F930E94AF1FEF921F9387EA97E0A0E0E4
:1013DC00AF939F938F930E94AF1FDF93CF9388EBB4
:1013EC0097E0A0E0AF939F938F930E94AF1F8DB7B0
:1013FC009EB70F968DBF9EBF47C221E333E040E0FE
:10140C008E2DB6010E94D71E892B09F046C083E0B1
:10141C000E948F1DD82EC92E83E090E00E94AA2036
:10142C00182FE92E63E070E080E090E00E945920D4
:10143C00C62FD72F62E977E080E00E94EF1C6DEC9D
:10144C0077E080E00E94EF1C62E977E080E00E9488
:10145C00EF1CCF92DF928AE997E0A0E0AF939F93C5
:10146C008F930E94AF1FEF921F9387EA97E0A0E043
:10147C00AF939F938F930E94AF1FDF93CF9388EB13
:10148C0097E0A0E0AF939F938F930E94AF1F8DB70F
:10149C009EB70F968DBF9EBFF7C12EEB33E040E099
:1014AC008E2DB6010E94D71E892B09F046C084E010
:1014BC000E948F1DD82EC92E84E090E00E94AA2095
:1014CC00182FE92E64E070E080E090E00E94592033
:1014DC00C62FD72F62E977E080E00E94EF1C63ED06
:1014EC0077E080E00E94EF1C62E977E080E00E94E8
:1014FC00EF1CCF92DF928AE997E0A0E0AF939F9325
:10150C008F930E94AF1FEF921F9387EA97E0A0E0A2
:10151C00AF939F938F930E94AF1FDF93CF9388EB72
:10152C0097E0A0E0AF939F938F930E94AF1F8DB76E
:10153C009EB70F968DBF9EBFA7C12BE434E040E051
:10154C008E2DB6010E94D71E892B09F046C085E06E
:10155C000E948F1DD82EC92E85E090E00E94AA20F3
:10156C00182FE92E65E070E080E090E00E94592091
:10157C00C62FD72F62E977E080E00E94EF1C69ED5F
:10158C0077E080E00E94EF1C62E977E080E00E9447
:10159C00EF1CCF92DF928AE997E0A0E0AF939F9384
:1015AC008F930E94AF1FEF921F9387EA97E0A0E002
:1015BC00AF939F938F930E94AF1FDF93CF9388EBD2
:1015CC0097E0A0E0AF939F938F930E94AF1F8DB7CE
:1015DC009EB70F968DBF9EBF57C12FED37E040E0F1
:1015EC008E2DB6010E94D71E892BF1F586E00E9444
:1015FC008F1D182FE92E86E090E00E94AA20C82F9C
:10160C00D92F62E977E080E00E94EF1C64EE77E06E
:10161C0080E00E94EF1C62E977E080E00E94EF1C02
:10162C00EF921F938AE997E0A0E0AF939F938F937B
:10163C000E94AF1FDF93CF9387EA97E0A0E0AF93B0
:10164C009F938F930E94AF1F1F921F9288EB97E07E
:10165C00A0E0AF939F938F930E94AF1F8DB79EB75F
:10166C000F968DBF9EBF10C12AEE37E040E08E2D45
:10167C00B6010E94D71E892BF1F587E00E948F1DC1
:10168C00182FE92E87E090E00E94AA20C82FD92FAE
:10169C0062E977E080E00E94EF1C6FEE77E080E07B
:1016AC000E94EF1C62E977E080E00E94EF1CEF9251
:1016BC001F938AE997E0A0E0AF939F938F930E94CA
:1016CC00AF1FDF93CF9387EA97E0A0E0AF939F9390
:1016DC008F930E94AF1F1F921F9288EB97E0A0E0A0
:1016EC00AF939F938F930E94AF1F8DB79EB70F96AA
:1016FC008DBF9EBFC9C025EF37E040E08E2DB601EF
:10170C000E94D71E892B59F460E070E0CB010E9437
:10171C0042206CEF77E080E00E947421B5C021E19B
:10172C0038E040E08E2DB6010E94D71E892B61F463
:10173C0061E070E080E090E00E94422068E178E097
:10174C0080E00E947421A0C02DE238E040E08E2D94
:10175C00B6010E94D71E892B61F462E070E080E034
:10176C0090E00E94422064E378E080E00E947421C3
:10177C008BC029E438E040E08E2DB6010E94D71EC4
:10178C00892B61F463E070E080E090E00E944220DD
:10179C0060E578E080E00E94742176C025E638E0B0
:1017AC0040E08E2DB6010E94D71E892B61F464E0B7
:1017BC0070E080E090E00E9442206CE678E080E0EF
:1017CC000E94742161C021E838E040E08E2DB60102
:1017DC000E94D71E892B61F465E070E080E090E0F8
:1017EC000E94422068E878E080E00E9474214CC09E
:1017FC002DE938E040E08E2DB6010E94D71E892BD2
:10180C0061F466E070E080E090E00E94422064EABF
:10181C0078E080E00E94742137C029EB38E040E08A
:10182C008E2DB6010E94D71E892B61F467E070E003
:10183C0080E090E00E94422060EC78E080E00E9422
:10184C00742122C028ED34E040E08E2DB6010E94B8
:10185C00D71E892BA1F41092494010924A406DED8D
:10186C0074E080E00E94EF1C65ED78E080E00E945F
:10187C00EF1C6EE575E080E00E94EF1C05C064E88B
:10188C0075E080E00E94EF1CDF91CF911F91EF90EB
:06189C00DF90CF900895DB
:1018A200CF92DF92EF926B01E82E0E943B1F809154
:1018B2004740909148408330910509F46EC144F449
:1018C2008130910509F4B2C0029709F40EC109C032
:1018D2008530910509F411C20CF4B7C1069709F4D9
:1018E20064C22AE831E040E08E2DB6010E94D71E84
:1018F200892B61F46FE871E080E00E94742181E03D
:1019020090E0809347409093484097C027E132E0AF
:1019120040E08E2DB6010E94D71E892B61F46CE146
:1019220072E080E00E94742182E090E08093474060
:101932009093484091C224EA32E040E08E2DB601F5
:101942000E94D71E892B61F469EA72E080E00E944E
:10195200742183E090E080934740909348407CC29A
:1019620021E333E040E08E2DB6010E94D71E892B81
:1019720061F466E373E080E00E94742184E090E009
:10198200809347409093484067C22EEB33E040E09B
:101992008E2DB6010E94D71E892B61F463EC73E091
:1019A20080E00E94742185E090E08093474090930C
:1019B200484052C22BE434E040E08E2DB6010E9432
:1019C200D71E892B61F460E574E080E00E947421E7
:1019D20086E090E080934740909348403DC228EDD6
:1019E20034E040E08E2DB6010E94D71E892BC9F447
:1019F2001092494010924A406DED74E080E00E94DE
:101A0200EF1C69EF74E080E00E94EF1C6AE175E070
:101A120080E00E94EF1C6EE575E080E00E94EF1C02
:101A220005C064E875E080E00E94EF1C80914740A9
:101A320090914840019709F00FC226E935E040E055
:101A42008E2DB6010E94D71E892B61F48FE990E09A
:101A520080932C0A90932D0A6BE975E080E00E9436
:101A6200EF1CFAC12EEA35E040E08E2DB6010E944D
:101A7200D71E892B61F48FE490E080932C0A909317
:101A82002D0A65EB75E080E00E94EF1CE5C12AECAF
:101A920035E040E08E2DB6010E94D71E892B61F4FD
:101AA2008FE190E080932C0A90932D0A6EEC75E002
:101AB20080E00E94EF1CD0C128ED34E040E08E2D82
:101AC200B6010E94D71E892B51F410924740109202
:101AD200484060EE75E080E00E94EF1CBDC164E802
:101AE20075E080E00E94EF1CB7C126E935E040E0D6
:101AF2008E2DB6010E94D71E892B61F48FE990E0EA
:101B020080932A0A90932B0A62E276E080E00E9498
:101B1200EF1CA2C12EEA35E040E08E2DB6010E94F4
:101B2200D71E892B61F48FE490E080932A0A909368
:101B32002B0A65E376E080E00E94EF1C8DC12AEC5F
:101B420035E040E08E2DB6010E94D71E892B61F44C
:101B520083E190E080932A0A90932B0A6AE476E06C
:101B620080E00E94EF1C78C128ED34E040E08E2D29
:101B7200B6010E94D71E892B51F410924740109251
:101B8200484060EE75E080E00E94EF1C65C164E8A9
:101B920075E080E00E94EF1C5FC126E935E040E07D
:101BA2008E2DB6010E94D71E892B61F48FE990E039
:101BB2008093280A9093290A6CE576E080E00E94DF
:101BC200EF1C4AC12EEA35E040E08E2DB6010E949C
:101BD200D71E892B61F48FE490E08093280A9093BA
:101BE200290A6FE676E080E00E94EF1C35C12AECFC
:101BF20035E040E08E2DB6010E94D71E892B61F49C
:101C020083E190E08093280A9093290A64E876E0C1
:101C120080E00E94EF1C20C128ED34E040E08E2DD0
:101C2200B6010E94D71E892B51F4109247401092A0
:101C3200484060EE75E080E00E94EF1C0DC164E850
:101C420075E080E00E94EF1C07C126E935E040E024
:101C52008E2DB6010E94D71E892B61F48FE990E088
:101C62008093780A9093790A66E976E080E00E9490
:101C7200EF1CF2C02EEA35E040E08E2DB6010E9444
:101C8200D71E892B61F48FE490E08093380A9093F9
:101C9200390A69EA76E080E00E94EF1CDDC02AEC96
:101CA20035E040E08E2DB6010E94D71E892B61F4EB
:101CB20083E190E08093380A9093390A6EEB76E0E4
:101CC20080E00E94EF1CC8C028ED34E040E08E2D79
:101CD200B6010E94D71E892B51F4109247401092F0
:101CE200484060EE75E080E00E94EF1CB5C064E8F9
:101CF20075E080E00E94EF1CAFC026E935E040E0CD
:101D02008E2DB6010E94D71E892B61F48FE990E0D7
:101D120080937A0A90937B0A60ED76E080E00E94DD
:101D2200EF1C9AC02EEA35E040E08E2DB6010E94EB
:101D3200D71E892B61F48FE490E080933A0A909346
:101D42003B0A63EE76E080E00E94EF1C85C02AEC3D
:101D520035E040E08E2DB6010E94D71E892B61F43A
:101D620083E190E080933A0A90933B0A68EF76E031
:101D720080E00E94EF1C70C028ED34E040E08E2D20
:101D8200B6010E94D71E892B51F41092474010923F
:101D9200484060EE75E080E00E94EF1C5DC064E8A0
:101DA20075E080E00E94EF1C57C026E935E040E074
:101DB2008E2DB6010E94D71E892B61F48FE990E027
:101DC20080937C0A90937D0A6AE077E080E00E942B
:101DD200EF1C42C02EEA35E040E08E2DB6010E9493
:101DE200D71E892B61F48FE490E080933C0A909394
:101DF2003D0A6DE177E080E00E94EF1C2DC02AECE5
:101E020035E040E08E2DB6010E94D71E892B61F489
:101E120083E190E080933C0A90933D0A62E377E08D
:101E220080E00E94EF1C18C028ED34E040E08E2DC7
:101E3200B6010E94D71E892B51F41092474010928E
:101E4200484060EE75E080E00E94EF1C05C064E847
:101E520075E080E00E94EF1CEF90DF90CF90089534
:101E62002F923F924F926F927F928F929F92AF9258
:101E7200BF92CF92DF92EF92FF920F931F93CF9375
:101E8200DF93CDB7DEB72E97CDBFDEBF4C016B011E
:101E9200380119821A828FEF9FEF8B839C831D82F8
:101EA2001E824F83588729873A87A12CB12CD601ED
:101EB2002D913D914C912A0D3B1D411DB7FC4A9538
:101EC200F901542F0E94DB21862F611116C0F60101
:101ED200208331834283F901542F0E94DB21653232
:101EE20009F011C21901442EFFEF2F1A3F0A4F0ABF
:101EF200D6012D923D924C921BC0653241F3B40142
:101F0200082E000C990B0E942A1B4FEFA41AB40A48
:101F1200CECF6C32DCF06D3229F529813A81216015
:101F220029833A830196A11DF60180839183A283BE
:101F3200F60180819181A281FC015A2F0E94DB214E
:101F42006B3239F729813A812460EACF603221F479
:101F520029813A812860E4CF633251F429813A81A0
:101F62002061DECF603321F429813A812260D8CF0B
:101F7200B701C6010E94FA1B8D839E8397FF0BC097
:101F820029813A81F1E02F2729833A83919581951E
:101F920091098D839E8389819A8180FF03C08D7F01
:101FA20089839A83F60180819181A281FC015A2F53
:101FB2000E94DB216E3261F40196A11DF60180833D
:101FC2009183A283B701C6010E94FA1B8B839C8373
:101FD200C6010E945C19182FD6019C9111968C9112
:101FE200119712965C91E92FF82F0E94DB21862F20
:101FF200660F990B0E94A821893609F44BC084F41C
:10200200833609F41CC134F4853209F448C181369F
:10201200E1F053C18436F1F188360CF4EBC04DC1C6
:10202200803709F4B2C03CF48E3609F4D8C08F363A
:1020320009F46EC042C1853709F44BC0883709F4F0
:1020420086C0833709F039C110C1612F70E0A70142
:10205200CE010B960E941B1F892B09F44BC1F6017E
:1020620080819181A2819C014A2F2F5F3F4F4F4F68
:10207200208331834283FC015A2F0E94DB21262FC9
:10208200AE01455F5F4FBE016F5F7F4FC4010E948B
:1020920000002DC1612F70E0970141E050E0CE01B8
:1020A2000B960E945F17892B09F424C1F6018081E7
:1020B2009181A2810196A11D80839183A283AE01A9
:1020C200455F5F4FBE016F5F7F4FC4010E940C16D8
:1020D2000EC1612F70E0970140E050E0CE010B96F7
:1020E2000E945F17892B09F405C1F6018081918155
:1020F200A2810196A11D80839183A283AE01455FD7
:102102005F4FBE016F5F7F4FC4010E94731BEFC020
:10211200612F70E0970140E050E0CE010B960E94E3
:102122005F17892B09F4E6C0F60180819181A281B3
:102132000196A11D80839183A283AE01455F5F4F0B
:10214200BE016F5F7F4FC4010E940219D0C0612F90
:1021520070E0970140E050E0CE010B960E945F17BD
:10216200892B09F4C7C0F60180819181A2819C016B
:102172004A2F2F5F3F4F4F4F208331834283FC0111
:102182005A2F0E94DB21262F20C0970140E050E009
:1021920060EF70E0CE010B960E945F17892B09F465
:1021A200A9C0F60180819181A2810196A11D80833F
:1021B2009183A2838B859C85892B31F400E010E00A
:1021C20029E73AE040E08DC028E7AE01455F5F4F66
:1021D200BE016F5F7F4FC4010E949A1188C0A501A2
:1021E200460D571D612F70E09701CE010B960E949C
:1021F200000080C0612F70E0A701CE010B960E9403
:102202001B1F892B09F476C0F60180819181A2817E
:102212009C014A2F2F5F3F4F4F4F208331834283D0
:10222200FC015A2F0E94DB21262FAE01455F5F4F32
:10223200BE016F5F7F4FC4010E94400558C0103835
:1022420009F058C0F60180819181A2810196A11DF9
:1022520080839183A283D701ED91FC911197CF01E5
:1022620002968D939C93808126C0103809F042C05B
:10227200F60180819181A2810196A11D80839183C3
:10228200A283D701ED91FC911197CF0103968D9313
:102292009C9320813181428100E010E022C01038FD
:1022A20049F5F6012081318142812F5F3F4F4F4F27
:1022B2002083318342838B870EC085E28B87F601B0
:1022C20020823182428219821A821D821E828FEFFF
:1022D2009FEF8B839C839E01255F3F4F40E801E087
:1022E20010E0BE016F5F7F4FC4010E94761C8A0D11
:1022F2009B1D0AC0F60180819181A2810196A11DD8
:1023020080839183A283C5012E96CDBFDEBFDF916C
:10231200CF911F910F91FF90EF90DF90CF90BF90E0
:10232200AF909F908F907F906F904F903F902F90A3
:0223320008950C
:10233400AFE0B0E0E0EAF1E10C94E11F1C016B01B5
:1023440049835A832B83FB01828193818480958006
:10235400E080F180A680B78097FD03C0E894E1F89F
:1023640002C081E090E0E981FA814080518062807E
:1023740073809701207133272C833D838401E4FE0D
:1023840007C0411451046104710411F00250110991
:10239400F701E870FF27EE83FF83E3FE02C00150DC
:1023A4001109F6010084F185E02D3197EE87FF874E
:1023B400EA0DFB1D10829C01201B310B28873987F5
:1023C400C701827099278A879B87EB818E2FEE0F36
:1023D400990B9C01215431092C873D872E853F851B
:1023E4002230310530F48C819D81892B09F041C064
:1023F4005BC0411451046104710459F18E859F85B9
:1024040001978E879F87C2018F7099278A30910523
:1024140014F4C09602C0895A9F4FEC85FD857A97C3
:1024240048F49C012062215631092A31310510F407
:102434000E948621EE85FF85EA0DFB1D80830150F5
:10244400110984E076946794579447948A95D1F758
:10245400C5CF88859985800F911F1816190674F2C7
:10246400101611060CF0BFCFEA85FB85EF2B31F671
:10247400BACFE981FA8180819181A281B381892BCC
:102484008A2B8B2B89F0EE85FF85EA0DFB1D319796
:102494002B8120838E859F8502978E879F87FC01E1
:1024A400EA0DFB1D80E38083EE81FF81EF2B59F061
:1024B4002E853F85215031092E873F87F901EA0D8A
:1024C400FB1D80E28083F60120853185215031098E
:1024D4008E859F85281B390B8A0D9B1DAC0160E8F6
:1024E4008401C1010E944C1A9C01F10180819181F7
:1024F40090FF06C0F60182819381821793070CF442
:0A250400C9012F96E2E10C942A2091
:10250E00CF93DF93CDB7DEB72F97CDBFDEBFE0E21F
:10251E00F4E082E0828311E01183E0E6F8E083E8E4
:10252E0096E0808791878681806C8683E091534008
:10253E00F091544082E290E4808391830E94E821DE
:10254E000E944F21E0E0F4E08CE0818398E09387D5
:10255E008487E0E0F9E0138387E0868315832FEF0D
:10256E0088E09DE3215080409040E1F700C00000DC
:10257E00FE0131968FE0DF011D928A95E9F782E325
:10258E0090E00E94931E789469EF74E080E00E94C0
:10259E00EF1C6AE175E080E00E94EF1C6EE575E0CD
:1025AE0080E00E94EF1C8E010F5F1F4F3801B0E8D4
:1025BE008B2E0F2EF3E0EF2EF12CF02D6894AA2423
:1025CE00A1F8B12CCC24C394D12C912C0E9498212B
:1025DE008D30E1F38A3009F46AC0292D30E02F30B6
:1025EE00310534F49394F801E20FF31F8083EECF9C
:1025FE0063E379E080E00E94EF1C912CE7CF24E4A6
:10260E0039E040E0882DB3010E94D71E892B79F462
:10261E00C0924940D0924A4066E479E080E00E9440
:10262E00EF1C63E679E080E00E947421CECF2EEBA2
:10263E0039E040E0882DB3010E94D71E892B79F432
:10264E00A0924940B0924A4060EC79E080E00E944E
:10265E00EF1C6DED79E080E00E94EF1CB6CF2BE110
:10266E003AE040E0882DB3010E94D71E892B51F429
:10267E00E0924940F0924A406DE17AE080E00E949B
:10268E00EF1CA3CF64E875E080E00E94EF1C9DCFA5
:10269E00882DB3010E940E0998CF882DB3010E9498
:1026AE00510C93CF882DB3010E94BB1B8ECFF80126
:1026BE00E90DF11D10828091494090914A4082307F
:1026CE00910559F38330910569F3019709F097CF7E
:0226DE00DFCF4C
:1026E000A5E1B0E0E6E7F3E10C94E11F47015801F2
:1026F0000E94FB212B013C01A80197010E94B921F6
:10270000162FC72ED82EF92E862F9C2DAD2DBF2D1E
:1027100089839A83AB83BC83AA81FB81EC81ED80A2
:102720003E802F8008850D8B5E2F5F71212F3A2F01
:102730004F2F60E070E080E090E021153105410509
:1027400000E15007610571058105910509F05EC042
:102750005E2F6E2D732D822D9D8904E30E945B1FD9
:102760002D873E874F87588B698B7A8B8B8B9C8B01
:102770008D859E8597708F3F974009F447C0A301D0
:102780009201612F7C2D8D2D9F2D0E94B8219B01E0
:10279000AC01C501B4010E94ED218823B9F149863D
:1027A0005A866B867C8629853A854B855C85C50172
:1027B000B4010E94B921B62E872E982EA92E262F5D
:1027C000372F482F592F612F7C2D8D2D9F2D0E9443
:1027D000ED21811118C02B2D8B2D982DA92DBA2DEF
:1027E00089839A83AB83BC833A814B815C816E2D54
:1027F000732D822D9D89A1E00E940C21122FC32EE2
:10280000D42EF52E03C01B2D6401FA2C612F7C2DD4
:0C2810008D2D9F2D6596E2E10C942A208E
:10281C004F925F926F927F928F929F92AF92BF92E4
:10282C00CF92DF92EF92FF92CF93DF93CDB7DEB7CB
:10283C002897CDBFDEBF6B017C01DC01CB0147E1EA
:10284C00B695A795979587954A95D1F799278F5760
:10285C009109873191059CF597FD36C088248A949F
:10286C00982C3FE7A32EB12C04C0B594A794979451
:10287C0087948A95D2F7D501C4018C219D21AE2174
:10288C00BF21892B8A2B8B2BD1F020E030E040E844
:10289C005BE7C701B6010E94B9216D837E838F83EC
:1028AC009887F7FE04C0C80CD91CEA1CFB1C80944A
:1028BC009094A094B094C820D920EA20FB205C2DE1
:1028CC004D2D3E2D2F2D21C020E030E040E85BE760
:1028DC00C701B6010E94B92169837A838B839C83DB
:1028EC00F7FE0FC0D701C601880F991FAA1FBB1F87
:1028FC00892B8A2B8B2B19F350E040E030E82FEB1F
:10290C0004C050E040E030E020E0652F742F832FAE
:10291C00922F2896CDBFDEBFDF91CF91FF90EF9025
:10292C00DF90CF90BF90AF909F908F907F906F90E3
:06293C005F904F9008952A
:1029420090E08830910508F07BC0FC01E658FF4F0B
:102952000C945921E0E8F4E08089887F808B80899B
:102962008460808B8089877F808B1092080608950F
:10297200E0E8F4E08189887F818B81898460818BA2
:102982008189877F818B81E0809308060895E0E842
:10299200F4E08289887F828B82898460828B82893B
:1029A200877F828B82E0809308060895E0E8F4E056
:1029B2008389887F838B83898460838B8389877FE4
:1029C200838B83E0809308060895E0E6F4E084892F
:1029D200887F848B84898460848B8489877F848BBD
:1029E20084E0809308060895E0E6F4E08589887F14
:1029F200858B85898460858B8589877F858B85E03A
:102A0200809308060895E0E6F4E08689887F868B45
:102A120086898460868B8689877F868B86E0809311
:102A220008060895E0E6F4E08789887F878B878926
:102A32008460878B8789877F878B87E080930806EE
:022A42000895F5
:102A44002F923F924F925F926F927F928F929F92BA
:102A5400AF92BF92CF92DF92EF92FF920F931F93A8
:102A64002B013C0120913B4030913C4040913D4042
:102A740050913E4060913F40709140408091414070
:102A840090914240A0903340B0903440C090354083
:102A9400D0903640E0903740F09038400091394073
:102AA40010913A400E94622112012301A22CB32CFE
:102AB400C42CD52CE12CF12C00E010E00E946B21F9
:102AC40019F110F170913B4060913C4050913D40B0
:102AD40040913E4030913F40209140409091414090
:102AE400809142407093334060933440509335401A
:102AF4004093364030933740209338409093394088
:102B040080933A4081E001C080E01F910F91FF90D3
:102B1400EF90DF90CF90BF90AF909F908F907F9079
:0C2B24006F905F904F903F902F900895AD
:102B3000CF93DF93CDB7DEB72797CDBFDEBF60E081
:102B400088E30E946E208CEA80930809E0E0F9E0B7
:102B5000858185FD0AC0858182FD07C0858183FD51
:102B600004C085818370833099F78091050984FFC3
:102B700005C060E677E080E00E947421E0E0F9E0C3
:102B80008481836084832FEF84E39CE02150804024
:102B90009040E1F700C0000061E088E30E946E20F1
:102BA000DE0111969E0123553F4FE0E0F9E092E0EF
:102BB000858185FD25C0858182FD07C0858183FDD6
:102BC00004C085818370833099F780858D93A21727
:102BD000B30711F09483ECCF87E0809304091F8240
:102BE0002FEF84E39CE0215080409040E1F700C04B
:102BF0000000CE0101960E94AE1908C09483D8CF80
:102C000080858D93A217B307C9F7E6CF2796CDBF6E
:082C1000DEBFDF91CF910895B2
:102C1800A2E0B0E0E2E1F6E10C94E11F4C016B01A7
:102C2800FB0122813381A480B580808191818983D1
:102C38009A8366807780FA012080318042805380B1
:102C4800B201A10157FE07C044275527BA0142190E
:102C580053096409750937FD03C08D7F89839A83F9
:102C6800950157FC05C0898182FD02C083FF02C01F
:102C780021503109CE0101967C010AE010E0C6011D
:102C88000E949D1857FC03C0298122FF0AC00197A2
:102C9800F301E80FF91F57FC02C02BE209C02DE22F
:102CA80007C023FF06C00197F301E80FF91F20E2D0
:102CB8002083E980FA80F601208531852150310989
:102CC800281B390B860D971DAC0160E88501C401EE
:102CD8000E944C1A9C01F4018081918190FF06C0EA
:102CE800F60182819381821793070CF4C901229619
:062CF800E2E10C942A2029
:102CFE00CF92DF92EF92FF920F931F93CF93DF93BA
:102D0E0080910A0B90910B0B80934B4090934C400B
:102D1E0080910C0B90910D0B80934F4090935040EF
:102D2E0080914B4090914C4020914F4030915040BB
:102D3E00821B930B80934D4090934E40C0914B401D
:102D4E00D0914C4060914D4070914E4000914B405F
:102D5E0010914C4080E090E00E94391C6B017C0188
:102D6E00B80180E090E00E94391C9B01AC01C701C4
:102D7E00B6010E94F7219B01AC0160E070E080E893
:102D8E009FE30E94B8216B017C01BE0180E090E0C0
:102D9E000E94391C20E83FE945ED59E40E94F721D5
:102DAE009B01AC0160E070E080E792E40E94F721A5
:102DBE009B01AC01C701B6010E94FB210E94C31DFD
:102DCE00DF91CF911F910F91FF90EF90DF90CF90F9
:022DDE00089556
:102DE00010C00E94CD2158F00E94C62140F029F465
:102DF0005F3F29F00C94E22151110C94D5210C94E1
:102E0000FF210E94B51E68F39923B1F3552391F376
:102E1000951B550BBB27AA2762177307840738F049
:102E20009F5F5F4F220F331F441FAA1FA9F335D0A6
:102E30000E2E3AF0E0E832D091505040E695001C5A
:102E4000CAF72BD0FE2F29D0660F771F881FBB1F14
:102E5000261737074807AB07B0E809F0BB0B802DF2
:102E6000BF01FF2793585F4F3AF09E3F510578F01E
:102E70000C94E2210C94D5215F3FE4F3983ED4F307
:102E8000869577956795B795F7959F5FC9F7880FF2
:102E9000911D9695879597F90895E1E0660F771F44
:102EA000881FBB1F621773078407BA0720F0621BD5
:0E2EB000730B840BBA0BEE1F88F7E0950895A4
:102EBE00CF93DF93DC01F90168387105F1F05CF412
:102ECE006138710561F164387105C9F160387105B9
:102EDE0009F056C034C0603C710561F1603F710568
:102EEE0009F443C0603A710509F04AC0C081D1812E
:102EFE00CE010296808391832AC0C081D181CE01FA
:102F0E00029680839183452B39F04881042E000C64
:102F1E00550B660B770B21C0488150E02EC0C08147
:102F2E00D181CE01049680839183488159816A8133
:102F3E007B8113C0C081D181CE0102961AC0C0819F
:102F4E00D181CE01029680839183452BA1F04881D9
:102F5E005981052E000C660B770B4D935D936D9387
:102F6E007C93139781E090E00DC0C081D181CE019A
:102F7E000396808391834881598160E070E0EDCFA4
:0A2F8E0080E090E0DF91CF910895FC
:102F98000FC00E94C62138F00E94CD2120F0952351
:102FA80011F00C94E2210C94FF2111240C94D521EA
:102FB8000E94B51E70F3959FC1F3950F50E0551F01
:102FC800629FF001729FBB27F00DB11D639FAA2776
:102FD800F00DB11DAA1F649F6627B00DA11D661FC5
:102FE800829F2227B00DA11D621F739FB00DA11DE6
:102FF800621F839FA00D611D221F749F3327A00DA0
:10300800611D231F849F600D211D822F762F6A2F3B
:1030180011249F5750409AF0F1F088234AF0EE0FA0
:10302800FF1FBB1F661F771F881F91505040A9F7CD
:103038009E3F510580F00C94E2210C94D5215F3F0E
:10304800E4F3983ED4F3869577956795B795F79509
:10305800E7959F5FC1F7FE2B880F911D9695879581
:0430680097F9089537
:10306C0011C00E94C62138F00E94CD2120F039F405
:10307C009F3F19F426F40C94FF210EF4E095E7FB26
:10308C000C94E221E92F0E94B51E58F3BA1762077F
:10309C0073078407950720F079F4A6F50C94D421D6
:1030AC000EF4E0950B2EBA2FA02D0B01B901900157
:1030BC000C01CA01A0011124FF27591B99F0593F9B
:1030CC0050F4503E68F11A16F040A22F232F342FE3
:1030DC004427585FF3CF469537952795A795F04031
:1030EC005395C9F77EF41F16BA0B620B730B840B46
:1030FC00BAF09150A1F0FF0FBB1F661F771F881FFE
:10310C00C2F70EC0BA0F621F731F841F48F4879555
:10311C0077956795B795F7959E3F08F0B0CF939547
:0E312C00880F08F09927EE0F97958795089564
:10313A00A0E0B0E0E3EAF8E10C94E31FDC01280127
:10314A001696AD90BC901797F701808191811296DF
:10315A00ED91FC9113971896CD91DC9119972197CF
:10316A00F7FF02C0E1E0F0E0CA0DDB1D1882690139
:10317A00A1E0B0E08F01021B130B4C01F2E08F2299
:10318A009924052C000C66087708CE018A199B0938
:10319A00CA15DB0519F1411551056105710589F05B
:1031AA00CB01BA01A30192010E94F91ECA01A62FFE
:1031BA00B72F605D6A9341E0C41AD108A901BC0126
:1031CA00E4CF98012C0D3D1D121613064CF31C1466
:1031DA001D0434F48114910419F702C080E090E0D0
:1031EA00AB2B31F4F701208131812F7E208331838B
:0A31FA00CDB7DEB7E0E10C942C2005
:10320400A2E0B0E0E8E0F9E10C94E51F5C016B0199
:10321400FB0122813381848095808081918189831F
:103224009A836680778037FD03C08D7F89839A8374
:10323400FA014081518162817381CE0101967C0142
:1032440008E010E09401C6010E949D18298124FF22
:1032540006C00197F301E80FF91F20E320832981B9
:1032640023FF06C00197F301E80FF91F20E2208332
:10327400E980FA80F6012085318521503109281B27
:10328400390B860D971DAC0160E88401C5010E94CD
:103294004C1A9C01F5018081918190FF06C0F601D2
:1032A40082819381821793070CF4C9012296EEE080
:0432B4000C942E2028
:1032B800CF92DF92EF92DC0190E0292F30E0220FCD
:1032C800331F6901032E000CEE086E2DA601445B26
:1032D800554F6F4F6A01E62EFA015E2D0E94DB21E1
:1032E800862F61110EC02F5F3F4F032E000C440B39
:1032F800245B354F4F4FF901542F0E94DB21862F55
:1033080025C0CD90DD90EC901297F6015E2D0E94BD
:10331800DB21861316C02F5F3F4F032E000C440B92
:10332800245B354F4F4FF901542F0E94DB21962F14
:103338005FEFC51AD50AE50ACD92DD92EC92129795
:1033480001C09F5F9B3008F4B8CF892FEF90DF90C2
:04335800CF90089575
:10335C000F931F93CF93DF93FC01648180E1689FEF
:10336C00B0011124858182958F70682B83818F70B9
:10337C0090E0982F88279295907F682B792B80E08E
:10338C0090E00E94391C20E030E040E857E30E94B6
:10339C00FB2120E030E048E453E40E94FB2120E0D4
:1033AC0030E048E452E40E94B821062F172FD82FA2
:1033BC00C92F9F938F937F936F9384E597E0A0E041
:1033CC00AF939F938F930E94AF1F602F712F8D2F00
:1033DC009C2F0E94BF21CB010E94931E8DB79EB7DC
:1033EC0007968DBF9EBFDF91CF911F910F910895CE
:1033FC001F920F920FB60F9211240BB60F922F93B0
:10340C003F934F935F936F937F938F939F93AF9360
:10341C00BF93EF93FF9320913B4030913C40409100
:10342C003D4050913E4060913F40709140408091B2
:10343C00414090914240A1E00E940C2120933B40DE
:10344C0030933C4040933D4050933E4060933F400E
:10345C007093404080934140909342400E94F21DF3
:10346C0081E080934301FF91EF91BF91AF919F91C8
:10347C008F917F916F915F914F913F912F910F9011
:0C348C000BBE0F900FBE0F901F90189504
:103498006F927F928F92AF92BF92CF92DF92EF920C
:1034A800FF920F931F93CF93DF935C013A01862E0F
:1034B800E901670181E0C822DD24E0FC03C0201790
:1034C800310758F09E01682DA301C5010E945A1DBD
:1034D800C017D10710F0CE0118C07801EC1AFD0A08
:1034E800E114F10449F0B50180E290E00E942A1B42
:1034F80081E0E81AF108F4CFCD2831F49E01682D57
:10350800A301C5010E945A1DC801DF91CF911F91E7
:103518000F91FF90EF90DF90CF90BF90AF908F907A
:063528007F906F900895F2
:10352E00623071058105910531F158F4611571050F
:10353E008105910591F06130710581059105A1F02C
:10354E0035C0643071058105910519F1D8F06530EB
:10355E0071058105910521F129C084E48093100243
:10356E0088E08093140422C085E48093110288E0E1
:10357E00809315041BC086E48093100288E080932C
:10358E00160414C087E48093100288E08093170419
:10359E000DC08CE48093100288E08093340406C042
:1035AE008DE48093100288E08093350481E080934F
:0435BE003E0208952C
:1035C200A3E8B0E0E7EEFAE10C94E71F5C014901E1
:1035D200CF57DF4F488359836A83C158D040C12CEB
:1035E200D12CCF57DF4F9881C158D040CE57DF4FF3
:1035F2008881C258D040CD57DF4F5881C358D04040
:10360200E92FF82F0E94DB216623E9F0740186017D
:1036120020E830E0AE014F5F5F4FBE016F577F4F32
:10362200C5010E94310F8C0D9D1D8C159D054CF41A
:103632008FE490E080930040909301408FEF9FEFE2
:1036420003C06C01CECFC601CD57DF4FECE00C9426
:02365200302026
:103654000F931F93CF93DF93DB012D913C9111972F
:1036640030FF25C017964D915C91189715962D91B2
:103674003C9116974217530778F41296ED91FC91FA
:103684001397808312962D913C9113972F5F3F4F90
:1036940012962D933C93139717962D913C9118975E
:1036A4002F5F3F4F17962D933C93189715C01D9687
:1036B400ED91FC911E97309719F48FEF9FEF0CC09A
:1036C4008B01EC010995892BC1F7F801878190855D
:1036D400019687839087CE01DF91CF911F910F913F
:0236E400089547
:1036E600A2E0B0E0E9E7FBE10C94E51F5C016B01A9
:1036F600FB01228133818480958080819181898339
:103706009A836680778037FD03C08D7F89839A838D
:10371600FA014081518162817381CE0101967C015B
:103726000AE010E09401C6010E949D18E980FA8023
:10373600F6012085318521503109281B390B860D6C
:10374600971DAC0160E88401C5010E944C1A9C01DA
:10375600F5018081918190FF06C0F60182819381F7
:10376600821793070CF4C9012296EEE00C942E20E2
:10377600CF92DF92EF926B01E82E2CE637E040E025
:103786000E94D71E892B41F461E777E080E00E9412
:10379600EF1C0E94981527C028ED34E040E08E2DDE
:1037A600B6010E94D71E892BC9F410924940109287
:1037B6004A406DED74E080E00E94EF1C69EF74E012
:1037C60080E00E94EF1C6AE175E080E00E94EF1C39
:1037D6006EE575E080E00E94EF1C05C064E875E0C8
:0E37E60080E00E94EF1CEF90DF90CF900895DE
:1037F400CF93DF93DC01EB012D913D914C91129716
:10380400F901542F0E94DB216A3221F080E090E01C
:103814007AE00FC02F5F3F4F4F4F2D933D934C9352
:10382400E881F981CF01029688839983808191810F
:103834001BC02D913D914C911297F901542F0E9478
:10384400DB2160536A3080F4789FF001799FF00D9A
:103854001124CF01860F911D2F5F3F4F4F4F2D93A2
:0E3864003D934C931297E5CFDF91CF910895DD
:10387200E89409C097FB3EF4909580957095619508
:103882007F4F8F4F9F4F9923A9F0F92F96E9BB27BE
:103892009395F695879577956795B795F111F8CF3A
:1038A200FAF4BB0F11F460FF1BC06F5F7F4F8F4FA5
:1038B2009F4F16C0882311F096E911C0772321F09B
:1038C2009EE8872F762F05C0662371F096E8862F33
:1038D20070E060E02AF09A95660F771F881FDAF78A
:0A38E200880F9695879597F90895D1
:1038EC006F927F928F92CF92DF92EF92FF920F9313
:1038FC001F93CF93DF936C01FB013901842EC80118
:10390C00C281D38104811581E080F180232B242B8B
:10391C0031F422E7622E2AE0722E20E0822E0097EC
:10392C0021F4882DB3010E94BD20D7FD04C0C81717
:10393C00D90708F4CE019C01682DA301C6010E9491
:10394C004C1ADF91CF911F910F91FF90EF90DF9068
:0A395C00CF908F907F906F90089538
:10396600CF92DF92EF92CF93DF93262F982FEA0123
:10397600E62FF72F582F0E94DB21862F4D855E8577
:10398600452B21F0C22ED72EE92E0FC08FEF9FEFC9
:103996001DC009952FEFC21AD20AE20A892BB1F788
:1039A600F6015E2D0E94DB21862FED85FE85BE0188
:1039B6008111EFCF8AE0099521E030E0892B11F4DF
:1039C60020E030E088279927821B930BDF91CF9167
:0839D600EF90DF90CF900895FF
:1039DE00AF92BF92CF92DF92EF92FF920F931F930F
:1039EE00CF93DF93A62EB72EF82EC62ED72EE82E07
:1039FE0000E010E0C0E6D8E00EC0F6015E2D0E9499
:103A0E00DB218C8185FFFDCF6A830F5F1F4F8FEF08
:103A1E00C81AD80AE80A6A2D7B2D8F2D0E94BD2068
:103A2E000817190750F3DF91CF911F910F91FF9057
:0C3A3E00EF90DF90CF90BF90AF90089504
:103A4A001F920F920FB60F9211240BB60F922F935B
:103A5A003F934F935F936F937F938F939F93AF930C
:103A6A00BF93EF93FF930E947F1660934340709336
:103A7A004440809345409093464081E0809357406C
:103A8A008093060BFF91EF91BF91AF919F918F9118
:103A9A007F916F915F914F913F912F910F900BBE44
:0A3AAA000F900FBE0F901F901895AB
:103AB4006F927F928F92CF92DF92EF920F931F9328
:103AC400CF93DF938C016A01E62EE9013A01862E39
:103AD400620E731E811C37FD8A94C614D704E80451
:103AE40081F0F6015E2D0E94DB21862FB801082E9D
:103AF400000C990B0E942A1B8FEFC81AD80AE80AF7
:103B0400ECCFCE01DF91CF911F910F91EF90DF9019
:0A3B1400CF908F907F906F9008957E
:103B1E0090E08830910568F5FC01EE57FF4F0C944C
:103B2E005921809102409091034008958091064062
:103B3E0090910740089580910A4090910B4008950E
:103B4E0080910E4090910F40089580911240909177
:103B5E0013400895809116409091174008958091DA
:103B6E001A4090911B40089580911E4090911F40E5
:083B7E00089580E090E0089535
:103B86000E94BD1E88F09F5798F0B92F9927B7510C
:103B9600B0F0E1F0660F771F881F991F1AF0BA95EB
:103BA600C9F714C0B13091F00E94D421B1E0089554
:103BB6000C94D421672F782F8827B85F39F0B93F46
:103BC600CCF3869577956795B395D9F73EF490959E
:0E3BD6008095709561957F4F8F4F9F4F08959A
:103BE4000F931F93CF93DF93609151407091524094
:103BF400072E000C880B990B0E9422158823C9F00C
:103C040002E010E4C0E0D0E0F8014081518162811B
:103C140073814F5F5F4F6F4F7F4F41935193619318
:103C240071938F01CE010E9418212196C830D105CD
:0C3C340059F7DF91CF911F910F91089577
:103C40000F931F93CF93DF9302E010E482E290E49E
:103C5000F8011192119211921192E817F907C9F720
:103C60008091021081FD10C0C0E0D0E0BE0180E86C
:103C70000E94B021F80161937193819391938F0118
:103C80002196C830D10591F7DF91CF911F910F9107
:023C9000089595
:103C920087E08093610480E7809341048BE0809306
:103CA200E605A0E0BAE08FE990E096968D939C93AA
:103CB2009797E0E4FAE086A397A383E411968C93A6
:103CC200119781838FE190E09C968D939C939D97B1
:0C3CD20084A795A781E08C93808308955F
:103CDE00990F0008550FAA0BE0E8FEEF161617060F
:103CEE00E807F907C0F012161306E407F50798F077
:103CFE00621B730B840B950B39F40A2661F0232B90
:103D0E00242B252B21F408950A2609F4A140A6950B
:083D1E008FEF811D811D089546
:103D26000F93CF9344E66EE10E94941FC82F04E6DA
:103D360020E04FE960E00E94771F1F928F9384E492
:103D460097E0A0E0AF939F938F930E94C81F8C2F9C
:103D56000E94491E0F900F900F900F900F90CF91D9
:043D66000F9108951C
:103D6A0057FD9058440F551F59F05F3F71F0479522
:103D7A00880F97FB991F61F09F3F79F08795089507
:103D8A00121613061406551FF2CF4695F1DF08C026
:103D9A00161617061806991FF1CF86957105610543
:043DAA0008940895DC
:103DAE00CF92DF92EF926B01E82EF6015E2D0E940C
:103DBE00DB21862FF901542F0E94DB2186130BC0C5
:103DCE00882341F08FEFC81AD80AE80A2F5F3F4FB9
:103DDE004F4FEBCF682F90E0861B9109EF90DF904D
:043DEE00CF900895D5
:103DF200A1E21A2EAA1BBB1BFD010DC0AA1FBB1FED
:103E0200EE1FFF1FA217B307E407F50720F0A21B5E
:103E1200B30BE40BF50B661F771F881F991F1A94CB
:103E220069F760957095809590959B01AC01BD01F5
:043E3200CF0108951F
:103E3600FA0160387105CCF0623871051CF0633800
:103E4600710599F4A081B1819D012C5F3F4F2083BC
:103E560031834D915D916D917C91FC01408351833D
:103E66006283738381E090E0089580E090E0089596
:103E760087E08093610480E7809341048BE0809320
:103E8600E605A0E0BAE08FE990E096968D939C93C4
:103E96009797E0E4FAE086A397A383E711968C93BD
:0C3EA6001197818381E08C938083089544
:103EB20097FB10F8169400080F93083098F00850FA
:103EC200232F342F452F562F672F782F892F902D90
:103ED200F4CF05949795879577956795579547956C
:0C3EE200379527950A95AAF70F910895CF
:103EEE000F931F93A62FB0E0E82FF0E0EA1BFB0B19
:103EFE0010E0021B1109E09FC001E19F900DF09FA1
:103F0E00900D1124642F70E06A1B7B0B0E9482209F
:0A3F1E00822F860F1F910F91089566
:103F28006817B8F4E62FF0E0481708F4842F282F14
:103F380030E02E1B3F0B5FE9529FC001539F900D4D
:103F48001124642F70E06E1B7F0B0E948220862F45
:063F5800089580E00895C9
:103F5E00A0E0B0E0E5EBFFE10C94F11F9E012B5FBA
:103F6E003F4FF9014191519161919F01E091534071
:103F7E00F0915440808191810E94FA1FE2E00C94EE
:023F8E003A20D7
:103F9000A0E0B0E0EEECFFE10C94F11F9E012B5F7E
:103FA0003F4FF9014191519161919F01E09153403F
:103FB000F0915440808191810E94FA1FE2E00C94BC
:023FC0003A20A5
:103FC2002F923F924F925F926F927F928F929F9227
:103FD200AF92BF92CF92DF92EF92FF920F931F9315
:103FE200CF93DF93CDB7DEB7CA1BDB0BCDBFDEBFEE
:023FF200099430
:103FF400A2E0B0E0E0E0F0E20C94EF1F8C01298332
:104004003A839E012F5F3F4F0E94E11AF8012081FD
:1040140024FF02C08FEF9FEF2296E4E00C94382037
:10402400262FAF93BF93E0E0F0E1328131FDFDCF65
:104034003DE934BF33E13083DC01A050BC4E2C9306
:104044003DE934BF20E020830196BF91AF910895EC
:104054002A88398848885F846E847D848C849B8414
:10406400AA84B984C884DF80EE80FD800C811B8122
:10407400AA81B981CE0FD11DCDBFDEBFED01089558
:104084002091021021FD12C0DC01CB01FC01EE0FD6
:10409400FF1FEE0FFF1FEE5FFF4B10821182128293
:0E40A400138240E050E0BA010E9418210895F6
:1040B2000E94971A80915740882359F0609143409B
:1040C20070914440809145409091464010925740F3
:0A40D200089560E070E0CB0108954E
:1040DC00880F682B60930709E0E0F9E0858185FD86
:1040EC000AC0858182FD07C0858183FD04C085815E
:0840FC008370833099F70895E9
:1041040097FB072E16F4009407D077FD09D00E9480
:10411400962007FC05D03EF4909581959F4F089515
:08412400709561957F4F08952D
:10412C00AA1BBB1B51E107C0AA1FBB1FA617B707D1
:10413C0010F0A61BB70B881F991F5A95A9F78095ED
:08414C009095BC01CD0108951E
:104154000E94A0210E94E0209C01245F3140ADEC2C
:10416400BCEC0E94EF209695879596958795969539
:06417400879599270895CC
:10417A009B01482FA82FCB01FC015A2F0E94DB215B
:10418A00662319F00196A11DF7CF642FA901841B9C
:04419A00950B0895E4
:10419E00092E0394000C11F4882352F0BB0F40F447
:1041AE00BF2B11F460FF04C06F5F7F4F8F4F9F4F87
:0241BE00089562
:1041C00081E080930A06E0E0F6E0858580FFFDCF80
:0E41D000E0E0F6E081E085878089918908951E
:1041DE00A29FB001B39FC001A39F700D811D11243A
:0E41EE00911DB29F700D811D1124911D089529
:1041FC009A01462FDC01F901542F0E94DB216D93AB
:0C420C002F5F3F4F4F4F6111F6CF089518
:104218000024A7FD00942A0F301D401D501D601D6D
:08422800701D801D901D08951A
:104230000396272F0E943B210E943A21252F0E949E
:084240003B21242F0C943B21CB
:10424800E0E4F1E081E080832FEF33E022873387D9
:06425800878382830895B4
:10425E00EC010E9407220E940622CE010E94082233
:06426E00CE010E940422B3
:10427400262F0E9494210080021619F00E94132018
:0642840001970197089567
:10428A00E0E6F8E0948195FFFDCF8093620880E034
:04429A0090E0089513
:10429E00E0E0FBE081E0858391E4948395E09183F7
:0442AE00808308956C
:1042B200EE0FFF1F0024001C0BBE0790F691E02DAD
:0242C20009945D
:1042C4002A193B094C095D096E097F09800B910B82
:0242D40008954B
:1042D6002A153B054C055D056E057F058007910790
:0242E600089539
:1042E800E0915340F0915440408151810E94B31CA9
:0242F800089527
:1042FA00FC01480F591FE417F50711F06193FBCF32
:02430A00089514
:10430C009C01215631092A31310510F48F759927FA
:02431C00089502
:10431E00CB0103D0808199270895FC01E050FC4E1B
:02432E000895F0
:10433000E0E6F8E084818823ECF780916008089536
:104340000E94A114E0E0F6E085E082838083089576
:104350009C01215431092A31310508F48062089505
:10436000CB010E94942160817181828193810895A3
:0E4370005058BB27AA270E9436180C94CF2065
:0E437E000E94C31D6894B1110C94D5210895BE
:0E438C0000240A94161617061806090608954E
:0E439A0000240A941216130614060506089550
:0E43A800E894BB2766277727CB0197F9089585
:0E43B60057FD03C05BBF6791089560810895B5
:0C43C40097F99F6780E870E060E00895C2
:0A43D0000E9424210E94201E08957F
:0A43DA000E946F1E08F481E00895B0
:0A43E4000E946F1E08F48FEF089589
:0843EE000E94F0160C94CF2090
:0843F6000E94CC170C94CF20AB
:0643FE009FEF80EC089522
:044404000C94000014
:044408000E94C3004B
:02440C00089511
:02440E0008950F
:0244100008950D
:104412000300000000000000000000000045210031
:014422000099
:02442300100E79
:02442500554000
:00000001FF
