:100000000C9489000C94B3170C94B3170C94B31789
:100010000C94B3170C9438110C94B3170C94B317B9
:100020000C94B3170C94B3170C94B3170C94B31728
:100030000C94B3170C94B3170C94A0130C94B3172F
:100040000C94B3170C94B3170C94B3170C94B31708
:100050000C94B3170C94B3170C94B3170C94B317F8
:100060000C94B3170C94B3170C94B3170C94B317E8
:100070000C94B3170C94B3170C94B3170C94B317D8
:100080000C94B3170C94B3170C94B3170C94B317C8
:100090000C94B3170C94B3170C94B3170C94B317B8
:1000A0000C94B3170C94B3170C94B3170C94B317A8
:1000B0000C94B3170C94B3170C94B3170C94B31798
:1000C0000C94B3170C94B3170C94B3170C94B31788
:1000D0000C94B3170C94B3170C94B3170C94B31778
:1000E0000C94B3170C94B3170C94B3170C94B31768
:1000F0000C94B317400040028040024013002F745C
:100100004013403D80403D4041002F8540414044E8
:10011000800011241FBECFEFCDBFDFE7DEBFE4EFCD
:10012000F0E041E019C0B791A7913791279107916D
:1001300007FD0EC097918791EF01F92FE82F0BBFB4
:1001400007900D92A217B307D9F7FE011BBE04C09A
:100150001D92A217B307E1F7E131F40721F70E94DE
:0A0160003F140C94FB16F894FFCF37
:10016A0043686F6F73652077686963682066616E9C
:10017A0020796F752077616E7420746F20636F6EBB
:10018A0074726F6C2C20636F6D6D616E646F2046A4
:10019A00414E30202D3E20350046414E3000436806
:1001AA006F6F7365206D616E75616C6C7920746810
:1001BA006520737472656E677468206F6620666165
:1001CA006E2030207573696E672074686520666FCB
:1001DA006C6C6F77696E6720636F6D6D616E6473A7
:1001EA003A2020484947482C204D454449554D2C32
:1001FA00204C4F5720616E64204241434B20696670
:10020A0020796F752077616E74206261636B207448
:10021A006F20746865206D61696E206D656E750D5D
:10022A000046414E310043686F6F7365206D616E01
:10023A0075616C6C792074686520737472656E6779
:10024A007468206F662066616E2031207573696E4E
:10025A00672074686520666F6C6C6F77696E6720BB
:10026A00636F6D6D616E64733A2020484947482C6C
:10027A00204D454449554D2C204C4F5720616E6402
:10028A00204241434B20696620796F752077616E61
:10029A0074206261636B20746F20746865206D61DD
:1002AA00696E206D656E750D0046414E32004368D9
:1002BA006F6F7365206D616E75616C6C79207468FF
:1002CA006520737472656E677468206F6620666154
:1002DA006E2032207573696E672074686520666FB8
:1002EA006C6C6F77696E6720636F6D6D616E647396
:1002FA003A2020484947482C204D454449554D2C21
:10030A00204C4F5720616E64204241434B2069665E
:10031A0020796F752077616E74206261636B207437
:10032A006F20746865206D61696E206D656E750D4C
:10033A000046414E330043686F6F7365206D616EEE
:10034A0075616C6C792074686520737472656E6768
:10035A007468206F662066616E2033207573696E3B
:10036A00672074686520666F6C6C6F77696E6720AA
:10037A00636F6D6D616E64733A2020484947482C5B
:10038A00204D454449554D2C204C4F5720616E64F1
:10039A00204241434B20696620796F752077616E50
:1003AA0074206261636B20746F20746865206D61CC
:1003BA00696E206D656E750D0046414E34004368C6
:1003CA006F6F7365206D616E75616C6C79207468EE
:1003DA006520737472656E677468206F6620666143
:1003EA006E2034207573696E672074686520666FA5
:1003FA006C6C6F77696E6720636F6D6D616E647385
:10040A003A2020484947482C204D454449554D2C0F
:10041A00204C4F5720616E64204241434B2069664D
:10042A0020796F752077616E74206261636B207426
:10043A006F20746865206D61696E206D656E750D3B
:10044A000046414E350043686F6F7365206D616EDB
:10045A0075616C6C792074686520737472656E6757
:10046A007468206F662066616E2035207573696E28
:10047A00672074686520666F6C6C6F77696E672099
:10048A00636F6D6D616E64733A2020484947482C4A
:10049A00204D454449554D2C204C4F5720616E64E0
:1004AA00204241434B20696620796F752077616E3F
:1004BA0074206261636B20746F20746865206D61BB
:1004CA00696E206D656E750D00496E76616C6964A2
:1004DA0020636F6D6D616E640D0A004849474800DC
:1004EA0046616E203020506F776572204849474830
:1004FA000D0A004D454449554D0046616E20302095
:10050A00506F776572204D454449554D0D0A004C90
:10051A004F570046616E203020506F776572204C2D
:10052A004F570D0A004241434B0046616E2031206D
:10053A00506F77657220484947480D0A0046616E38
:10054A00203120506F776572204D454449554D0D35
:10055A000A0046616E203120506F776572204C4F39
:10056A00570D0A0046616E203220506F776572205F
:10057A00484947480D0A0046616E203220506F777D
:10058A006572204D454449554D0D0A0046616E205D
:10059A003220506F776572204C4F570D0A00466122
:1005AA006E203320506F77657220484947480D0AFC
:1005BA000046616E203320506F776572204D4544A6
:1005CA0049554D0D0A0046616E203320506F7765FC
:1005DA0072204C4F570D0A0046616E203420506F2E
:1005EA0077657220484947480D0A0046616E2034F3
:1005FA0020506F776572204D454449554D0D0A00CC
:10060A0046616E203420506F776572204C4F570D2B
:10061A000A0046616E203520506F7765722048497E
:10062A0047480D0A0046616E203520506F77657283
:10063A00204D454449554D0D0A0046616E2035202E
:10064A00506F776572204C4F570D0A0074656D70B4
:10065A003A20252E32660A00647574793A20256993
:10066A000A00746172676574204E41434B0041551C
:10067A00544F0046616E206973206E6F7720676F52
:10068A00696E67206175746F6D61746963616C6C02
:10069A00790052657475726E696E6720746F204DA9
:1006AA0061696E204D656E752E2E2E0D0A000A00A8
:1006BA0046616E303A0052554E54494D453A20250E
:1006CA00750A0054454D50455241545552453A20F9
:1006DA0025750A0052504D3A2025750A0046616E6A
:1006EA00313A0046616E323A0046616E333A00464C
:1006FA00616E343A0046616E353A0046414E360024
:10070A0046616E363A0046414E370046616E373AC8
:10071A00005265736574300046616E203020727530
:10072A006E74696D652072657365740D0052657328
:10073A006574310046616E20312072756E74696D80
:10074A00652072657365740D0052657365743200B5
:10075A0046616E20322072756E74696D652072650D
:10076A007365740D005265736574330046616E20BB
:10077A00332072756E74696D652072657365740DC8
:10078A00005265736574340046616E2034207275B8
:10079A006E74696D652072657365740D00526573B8
:1007AA006574350046616E20352072756E74696D08
:1007BA00652072657365740D005265736574360041
:1007CA0046616E20362072756E74696D6520726599
:1007DA007365740D005265736574370046616E2047
:1007EA00372072756E74696D652072657365740D54
:1007FA000042696E6172792025643A2000256400FE
:10080A0068076C094C836A9074A07AC00080688873
:06081A0000846C820081E5
:10082000494E4600696E66004E414E006E616E0094
:07083000286E756C6C2900B5
:06083700286E696C290027
:10083E00A8E2B0E0E5E2F4E00C94D21589A39AA305
:10084E00688F798F2A8FFB010190F081E02DED8763
:10085E00FE87FB010280F381E02DEB83FC83FB011D
:10086E000480F581E02DEC8BFD8BFB010084F1857E
:10087E00E02DEDA3FEA3FB010680F781E02DE983B9
:10088E00FA83FA01408051806280738020E030E06C
:10089E00A901C301B2010E949E1787FF06C077FA15
:1008AE00709477F870948DE204C0FD85F2FF75C3E5
:1008BE008BE2E981FA8180832C893D8921503109AF
:1008CE002F83388741E050E04A8B5B8B06C08C89C2
:1008DE009D898F8398871A8A1B8AD301C201BF779D
:1008EE000097E0E8AE07EFE7BE07E1F42A8D022E8F
:1008FE00000C330B2154310989819A814A895B8915
:10090E00840F951F2A31310520F440E258E060E053
:10091E0003C044E258E060E00E94CB1664E278E047
:10092E0080E01FC00197A048BF4738F12A8D022EE4
:10093E00000C330B2154310989819A814A895B89D4
:10094E00840F951F2A31310520F448E258E060E00B
:10095E0003C04CE258E060E00E94CB166CE278E0F7
:10096E0080E00E949916E981FA81AF0160E8ED847A
:10097E00FE840C891D899C0108C320E030E0A9018A
:10098E00C301B2010E949E17812C912C20E8A22E49
:10099E002FE3B22E212C312C882309F488C04986EE
:1009AE005A866B867C8620E030E040E251E4C50139
:1009BE00B4010E94AC176B017C01D301C2018C19EA
:1009CE009D09AE09BF09B7FF07C0B095A0959095D8
:1009DE0081959F4FAF4FBF4F0297A105B10534F4DC
:1009EE00FFEF2F1A3F0A46015701DDCFA3019201F7
:1009FE00C701B6010E949E1787FDF2CFC984DA8423
:100A0E00EB84FC84C818D908EA08FB082FEFC21A39
:100A1E00D20AE20AF20A33E0C316D104E104F10469
:100A2E0008F443C000E010E0A3019201C501B40137
:100A3E000E94A3171816DCF544ED24164EEF34066B
:100A4E00CCF401151105B1F420E030E040E85AE590
:100A5E00C301B2010E94AC172B013C0120E030E033
:100A6E0040E85AE5C501B4010E94AC174B015C0188
:100A7E0001E010E020E030E040E251E4C501B401B5
:100A8E000E94A8174B015C0151E0251A3108D301D1
:100A9E00C20188199909AA09BB090196A11DB11DA8
:100AAE000397A105B10508F0BFCF240135018A8D4A
:100ABE00082E000C990B8A8F9B8F0E94611788A3BA
:100ACE00EB81FC81F7FD03C0E987FA8704C026E0BD
:100ADE0030E029873A8738A1373651F44B815C8153
:100AEE00452B09F05FC281E090E089879A875AC250
:100AFE0028A1298B04C037FE66C236E6398B49859C
:100B0E005A854F5F5F4F49875A875989563699F4F0
:100B1E0037FE08C0812C912C90E8A92E9FE3B92EA8
:100B2E00212C312C88A1873631F0E985FA85E20D2A
:100B3E00F31DE987FA8788A69FA2AB82BF86730151
:100B4E0062011E8A1F8A4E895F8989859A85481798
:100B5E005907E4F528A53FA14B815F85C701B60172
:100B6E000E94A8170E94E10B6C8F7D8F8E8F9F8F36
:100B7E000E9470176BA38701760117FB109517F96A
:100B8E00109528A53FA14B815F856C8D7D8D8E8D37
:100B9E009F8D0E94430B6B017C01F7FAF094F7F8DE
:100BAE00F09420E030E040E251E468A57FA18B8113
:100BBE009F850E94A81768A77FA38B839F872E8986
:100BCE003F892F5F3F4F2E8B3F8BBDCF20E030E014
:100BDE0040EA50E468A57FA18B819F850E94AC17E7
:100BEE006B837C838D839E839B01AC01C701B60111
:100BFE000E949E1787FD0DC02B813C814D815E8129
:100C0E00C701B6010E949E17811107C09BA190FDDE
:100C1E0004C01B821C821D821E82A30192016B8165
:100C2E007C818D819E810E946A172B013C0120E000
:100C3E0030E040E251E4C501B4010E94AC176B8371
:100C4E007F87D82EC92E9B01482F592FC301B20181
:100C5E000E94A31787FD11C0EFEF2E1A3E0AF989E5
:100C6E00F63679F429853A852F5F3F4F29873A87E3
:100C7E003B813FA34F8548A70BC08B829F86DA2C02
:100C8E00CB2C5989553631F08B818FA39F8598A730
:100C9E00410106C0EB81EFA3FF85F8A7812C912CB3
:100CAE00AA88BB88E12CF12C1E8A1F8A1F86188AFF
:100CBE002D853E85207133272BA33CA32F853889A4
:100CCE0049855A852417350734F08E899F89892BDB
:100CDE0009F4A0C0ACC08501E88DF98D80859185A1
:100CEE000597A816B90688F72FA138A54D2D5C2DAE
:100CFE00C301B2010E94A8170E94E10B6C8F7D8F79
:100D0E008E8F9F8F0E9470176A30710514F069E004
:100D1E0070E04BA15CA1452B69F46115710551F48E
:100D2E0058A1573639F497FE05C0C70101968B833B
:100D3E009C8341C0EE89FF89EF2BA9F497FE13C067
:100D4E00FFEFAF1ABF0AE981FA81E00FF11F2EE221
:100D5E0020834F815885415051094F83588781E038
:100D6E0090E08E8B9F8BE981FA81EA0DFB1DEB8261
:100D7E00FC824B815C81452B49F090E391932B8152
:100D8E003C81215031092B833C83F3CFC7018A0D5F
:100D9E009B1D2F8138852E193F095C015FEFA51A27
:100DAE00B50AE981FA81E80FF91F605D6083C90118
:100DBE0001978F8398878301720117FB109517F99E
:100DCE0010952FA138A54D2D5C2D6C8D7D8D8E8DA2
:100DDE009F8D0E94430B2B013C0177FA709477F89C
:100DEE00709420E030E040E251E46FA178A58D2DA3
:100DFE009C2D0E94A8176FA378A7D82EC92E91E01C
:100E0E00891A9108EF85F8893196EF87F88BEB8078
:100E1E00FC8054CFFD85F4FF0AC0E981FA81EA0D0A
:100E2E00FB1D8EE2808395012F5F3F4F5901498153
:100E3E005A814A0D5B1D4B835C83FA011082F9893E
:100E4E00F53609F061C0E981FA812DA13EA1E20FCC
:100E5E00F31F3197108237FE06C03194219431086A
:100E6E0001E010E002C000E010E0EDA1FEA131971C
:100E7E0049815A81E40FF51F22E030E08AE0E82E26
:100E8E00F12CCF0149815A81841B950B2114310419
:100E9E0079F0C101B7010E945E16805D82931B013D
:100EAE00215031098F81988501978F839887E9CFDB
:100EBE001216130674F3FC013197E40FF51F012B84
:100ECE0011F42BE201C02DE220830297E981FA8111
:100EDE00E80FF91F2A8D3B8D215431092A31310536
:100EEE0010F025E601C025E420832F81388522509D
:100EFE0031092F833887A816B90634F4AF0160E89C
:100F0E008B819C810E94CB1649815A813A0180E8DF
:100F1E00882E9D8591FF2EC090FD2CC0EF81F88507
:100F2E001E161F063CF5882DB3010E9499162981C5
:100F3E003A81820F931F9C0149815A81241B350BE4
:100F4E00EA89FB892E173F074CF0FC012081EF81C7
:100F5E00F885E80FF91F20830197EDCF4F81588553
:100F6E0060E370E089819A818E0F9F1F0E943E1769
:100F7E001C8A1D8A882DB3010E949916ED84FE8469
:100F8E000C891D899C01682DA30189A19AA10E943B
:100F9E008611A896E2E10C941B165D8553FF97CC43
:100FAE0080E287CC2CEF22162FEF32064CF0E9852B
:100FBE00FA852E163F060CF49ECDF5E6F98BBBCDC9
:0C0FCE0035E6398BB8CD46E6498BB5CD31
:100FDA002F923F924F926F927F928F929F92AF92EF
:100FEA00BF92CF92DF92EF92FF920F931F93CF930C
:100FFA00DF93CDB7DEB72E97CDBFDEBF4C016B01B5
:10100A00380119821A828FEF9FEF8B839C831D828E
:10101A001E824F83588729873A87A12CB12CD60183
:10102A002D913D914C912A0D3B1D411DB7FC4A95CE
:10103A00F901542F0E948C17862F611116C0F601F0
:10104A00208331834283F901542F0E948C17653221
:10105A0009F011C21901442EFFEF2F1A3F0A4F0A55
:10106A00D6012D923D924C921BC0653241F3B401D8
:10107A00082E000C990B0E941A124FEFA41AB40AF8
:10108A00CECF6C32DCF06D3229F529813A812160AC
:10109A0029833A830196A11DF60180839183A28355
:1010AA00F60180819181A281FC015A2F0E948C173E
:1010BA006B3239F729813A812460EACF603221F410
:1010CA0029813A812860E4CF633251F429813A8137
:1010DA002061DECF603321F429813A812260D8CFA2
:1010EA00B701C6010E94AB128D839E8397FF0BC086
:1010FA0029813A81F1E02F2729833A8391958195B5
:10110A0091098D839E8389819A8180FF03C08D7F97
:10111A0089839A83F60180819181A281FC015A2FE9
:10112A000E948C176E3261F40196A11DF60180832C
:10113A009183A283B701C6010E94AB128B839C8361
:10114A00C6010E94E610182FD6019C9111968C9127
:10115A00119712965C91E92FF82F0E948C17862F0F
:10116A00660F990B0E946117893609F44BC084F403
:10117A00833609F41CC134F4853209F448C1813636
:10118A00E1F053C18436F1F188360CF4EBC04DC15D
:10119A00803709F4B2C03CF48E3609F4D8C08F36D1
:1011AA0009F46EC042C1853709F44BC0883709F487
:1011BA0086C0833709F039C110C1612F70E0A701D9
:1011CA00CE010B960E945D15892B09F44BC1F601DD
:1011DA0080819181A2819C014A2F2F5F3F4F4F4FFF
:1011EA00208331834283FC015A2F0E948C17262FB9
:1011FA00AE01455F5F4FBE016F5F7F4FC4010E9422
:10120A0000002DC1612F70E0970141E050E0CE014E
:10121A000B960E94C70D892B09F424C1F60180811F
:10122A009181A2810196A11D80839183A283AE013F
:10123A00455F5F4FBE016F5F7F4FC4010E94740C10
:10124A000EC1612F70E0970140E050E0CE010B968D
:10125A000E94C70D892B09F405C1F601808191818D
:10126A00A2810196A11D80839183A283AE01455F6D
:10127A005F4FBE016F5F7F4FC4010E946312EFC0D0
:10128A00612F70E0970140E050E0CE010B960E947A
:10129A00C70D892B09F4E6C0F60180819181A281EC
:1012AA000196A11D80839183A283AE01455F5F4FA2
:1012BA00BE016F5F7F4FC4010E948C10D0C0612FA6
:1012CA0070E0970140E050E0CE010B960E94C70DF6
:1012DA00892B09F4C7C0F60180819181A2819C0102
:1012EA004A2F2F5F3F4F4F4F208331834283FC01A8
:1012FA005A2F0E948C17262F20C0970140E050E0F9
:10130A0060EF70E0CE010B960E94C70D892B09F49D
:10131A00A9C0F60180819181A2810196A11D8083D5
:10132A009183A2838B859C85892B31F400E010E0A0
:10133A0027E338E040E08DC028E7AE01455F5F4F04
:10134A00BE016F5F7F4FC4010E94560A88C0A50183
:10135A00460D571D612F70E09701CE010B960E9432
:10136A00000080C0612F70E0A701CE010B960E9499
:10137A005D15892B09F476C0F60180819181A281DD
:10138A009C014A2F2F5F3F4F4F4F20833183428367
:10139A00FC015A2F0E948C17262FAE01455F5F4F22
:1013AA00BE016F5F7F4FC4010E941F0458C01038EE
:1013BA0009F058C0F60180819181A2810196A11D90
:1013CA0080839183A283D701ED91FC911197CF017C
:1013DA0002968D939C93808126C0103809F042C0F2
:1013EA00F60180819181A2810196A11D808391835A
:1013FA00A283D701ED91FC911197CF0103968D93AA
:10140A009C9320813181428100E010E022C0103893
:10141A0049F5F6012081318142812F5F3F4F4F4FBD
:10142A002083318342838B870EC085E28B87F60146
:10143A0020823182428219821A821D821E828FEF95
:10144A009FEF8B839C839E01255F3F4F40E801E01D
:10145A0010E0BE016F5F7F4FC4010E9427138A0DFF
:10146A009B1D0AC0F60180819181A2810196A11D6E
:10147A0080839183A283C5012E96CDBFDEBFDF9103
:10148A00CF911F910F91FF90EF90DF90CF90BF9077
:10149A00AF909F908F907F906F904F903F902F903A
:0214AA000895A3
:1014AC00AFE0B0E0ECE5FAE00C94D2151C016B0156
:1014BC0049835A832B83FB0182819381848095809D
:1014CC00E080F180A680B78097FD03C0E894E1F836
:1014DC0002C081E090E0E981FA8140805180628015
:1014EC0073809701207133272C833D838401E4FEA4
:1014FC0007C0411451046104710411F00250110928
:10150C00F701E870FF27EE83FF83E3FE02C0015072
:10151C001109F6010084F185E02D3197EE87FF87E4
:10152C00EA0DFB1D10829C01201B310B288739878B
:10153C00C701827099278A879B87EB818E2FEE0FCC
:10154C00990B9C01215431092C873D872E853F85B1
:10155C002230310530F48C819D81892B09F041C0FA
:10156C005BC0411451046104710459F18E859F854F
:10157C0001978E879F87C2018F7099278A309105BA
:10158C0014F4C09602C0895A9F4FEC85FD857A975A
:10159C0048F49C012062215631092A31310510F49E
:1015AC000E944717EE85FF85EA0DFB1D80830150D5
:1015BC00110984E076946794579447948A95D1F7EF
:1015CC00C5CF88859985800F911F1816190674F25E
:1015DC00101611060CF0BFCFEA85FB85EF2B31F608
:1015EC00BACFE981FA8180819181A281B381892B63
:1015FC008A2B8B2B89F0EE85FF85EA0DFB1D31972D
:10160C002B8120838E859F8502978E879F87FC0177
:10161C00EA0DFB1D80E38083EE81FF81EF2B59F0F7
:10162C002E853F85215031092E873F87F901EA0D20
:10163C00FB1D80E28083F601208531852150310924
:10164C008E859F85281B390B8A0D9B1DAC0160E88C
:10165C008401C1010E9486119C01F101808191815C
:10166C0090FF06C0F60182819381821793070CF4D8
:0A167C00C9012F96E2E10C941B1641
:10168600A5E1B0E0E9E4FBE00C94D215470158016E
:101696000E94AC172B013C01A80197010E946A1712
:1016A600162FC72ED82EF92E862F9C2DAD2DBF2D89
:1016B60089839A83AB83BC83AA81FB81EC81ED800D
:1016C6003E802F8008850D8B5E2F5F71212F3A2F6C
:1016D6004F2F60E070E080E090E021153105410574
:1016E60000E15007610571058105910509F05EC0AD
:1016F6005E2F6E2D732D822D9D8904E30E949D150C
:101706002D873E874F87588B698B7A8B8B8B9C8B6B
:101716008D859E8597708F3F974009F447C0A3013A
:101726009201612F7C2D8D2D9F2D0E9469179B01A3
:10173600AC01C501B4010E949E178823B9F1498600
:101746005A866B867C8629853A854B855C85C501DC
:10175600B4010E946A17B62E872E982EA92E262F20
:10176600372F482F592F612F7C2D8D2D9F2D0E94AD
:101776009E17811118C02B2D8B2D982DA92DBA2DB2
:1017860089839A83AB83BC833A814B815C816E2DBE
:10179600732D822D9D89A1E00E94D916122FC32E8A
:1017A600D42EF52E03C01B2D6401FA2C612F7C2D3F
:0C17B6008D2D9F2D6596E2E10C941B1612
:1017C2004F925F926F927F928F929F92AF92BF924F
:1017D200CF92DF92EF92FF92CF93DF93CDB7DEB736
:1017E2002897CDBFDEBF6B017C01DC01CB0147E155
:1017F200B695A795979587954A95D1F799278F57CB
:101802009109873191059CF597FD36C088248A9409
:10181200982C3FE7A32EB12C04C0B594A7949794BB
:1018220087948A95D2F7D501C4018C219D21AE21DE
:10183200BF21892B8A2B8B2BD1F020E030E040E8AE
:101842005BE7C701B6010E946A176D837E838F83AF
:101852009887F7FE04C0C80CD91CEA1CFB1C8094B4
:101862009094A094B094C820D920EA20FB205C2D4B
:101872004D2D3E2D2F2D21C020E030E040E85BE7CA
:10188200C701B6010E946A1769837A838B839C839E
:10189200F7FE0FC0D701C601880F991FAA1FBB1FF1
:1018A200892B8A2B8B2B19F350E040E030E82FEB89
:1018B20004C050E040E030E020E0652F742F832F19
:1018C200922F2896CDBFDEBFDF91CF91FF90EF9090
:1018D200DF90CF90BF90AF909F908F907F906F904E
:0618E2005F904F90089595
:1018E800A2E0B0E0EAE7FCE00C94D2154C016B01F1
:1018F800FB0122813381A480B58080819181898315
:101908009A8366807780FA012080318042805380F4
:10191800B201A10157FE07C044275527BA01421951
:1019280053096409750937FD03C08D7F89839A833C
:10193800950157FC05C0898182FD02C083FF02C062
:1019480021503109CE0101967C010AE010E0C60160
:101958000E94050F57FC03C0298122FF0AC0019786
:10196800F301E80FF91F57FC02C02BE209C02DE272
:1019780007C023FF06C00197F301E80FF91F20E213
:101988002083E980FA80F6012085318521503109CC
:10199800281B390B860D971DAC0160E88501C40131
:1019A8000E9486119C01F4018081918190FF06C0FC
:1019B800F60182819381821793070CF4C90122965C
:0619C800E2E10C941B1685
:1019CE00CF92DF92EF92FF920F931F93CF93DF93FD
:1019DE0080910A0B90910B0B809337409093384077
:1019EE0080910C0B90910D0B80933B4090933C405B
:1019FE00809137409091384020913B4030913C404F
:101A0E00821B930B8093394090933A40C09137409C
:101A1E00D09138406091394070913A4000913740F2
:101A2E001091384080E090E00E94EA126B017C0138
:101A3E00B80180E090E00E94EA129B01AC01C70160
:101A4E00B6010E94A8179B01AC0160E070E080E82F
:101A5E009FE30E9469176B017C01BE0180E090E05C
:101A6E000E94EA1220E030E543E459E40E94A817F0
:101A7E009B01AC0160E070E080E792E40E94A81741
:101A8E009B01AC01C701B6010E94AC170E94A214C3
:101A9E00DF91CF911F910F91FF90EF90DF90CF903C
:021AAE00089599
:101AB00010C00E947E1758F00E94771740F029F45A
:101AC0005F3F29F00C94931751110C9486170C94D6
:101AD000B0170E94191568F39923B1F3552391F3B8
:101AE000951B550BBB27AA2762177307840738F08D
:101AF0009F5F5F4F220F331F441FAA1FA9F335D0EA
:101B00000E2E3AF0E0E832D091505040E695001C9D
:101B1000CAF72BD0FE2F29D0660F771F881FBB1F57
:101B2000261737074807AB07B0E809F0BB0B802D35
:101B3000BF01FF2793585F4F3AF09E3F510578F061
:101B40000C9493170C9486175F3FE4F3983ED4F3FC
:101B5000869577956795B795F7959F5FC9F7880F35
:101B6000911D9695879597F90895E1E0660F771F87
:101B7000881FBB1F621773078407BA0720F0621B18
:0E1B8000730B840BBA0BEE1F88F7E0950895E7
:101B8E00CF93DF93DC01F90168387105F1F05CF455
:101B9E006138710561F164387105C9F160387105FC
:101BAE0009F056C034C0603C710561F1603F7105AB
:101BBE0009F443C0603A710509F04AC0C081D18171
:101BCE00CE010296808391832AC0C081D181CE013D
:101BDE00029680839183452B39F04881042E000CA8
:101BEE00550B660B770B21C0488150E02EC0C0818B
:101BFE00D181CE01049680839183488159816A8177
:101C0E007B8113C0C081D181CE0102961AC0C081E2
:101C1E00D181CE01029680839183452BA1F048811C
:101C2E005981052E000C660B770B4D935D936D93CA
:101C3E007C93139781E090E00DC0C081D181CE01DD
:101C4E000396808391834881598160E070E0EDCFE7
:0A1C5E0080E090E0DF91CF9108953F
:101C68000FC00E94771738F00E947E1720F0952346
:101C780011F00C9493170C94B01711240C94861738
:101C88000E94191570F3959FC1F3950F50E0551FE9
:101C9800629FF001729FBB27F00DB11D639FAA27B9
:101CA800F00DB11DAA1F649F6627B00DA11D661F08
:101CB800829F2227B00DA11D621F739FB00DA11D29
:101CC800621F839FA00D611D221F749F3327A00DE3
:101CD800611D231F849F600D211D822F762F6A2F7F
:101CE80011249F5750409AF0F1F088234AF0EE0FE4
:101CF800FF1FBB1F661F771F881F91505040A9F711
:101D08009E3F510580F00C9493170C9486175F3F03
:101D1800E4F3983ED4F3869577956795B795F7954C
:101D2800E7959F5FC1F7FE2B880F911D96958795C4
:041D380097F908957A
:101D3C0011C00E94771738F00E947E1720F039F4FA
:101D4C009F3F19F426F40C94B0170EF4E095E7FBC2
:101D5C000C949317E92F0E94191558F3BA176207C0
:101D6C0073078407950720F079F4A6F50C94851772
:101D7C000EF4E0950B2EBA2FA02D0B01B90190019A
:101D8C000C01CA01A0011124FF27591B99F0593FDE
:101D9C0050F4503E68F11A16F040A22F232F342F26
:101DAC004427585FF3CF469537952795A795F04074
:101DBC005395C9F77EF41F16BA0B620B730B840B89
:101DCC00BAF09150A1F0FF0FBB1F661F771F881F41
:101DDC00C2F70EC0BA0F621F731F841F48F4879599
:101DEC0077956795B795F7959E3F08F0B0CF93958B
:0E1DFC00880F08F09927EE0F979587950895A8
:101E0A00A0E0B0E0EBE0FFE00C94D415DC0128017F
:101E1A001696AD90BC901797F70180819181129622
:101E2A00ED91FC9113971896CD91DC911997219712
:101E3A00F7FF02C0E1E0F0E0CA0DDB1D188269017C
:101E4A00A1E0B0E08F01021B130B4C01F2E08F22DC
:101E5A009924052C000C66087708CE018A199B097B
:101E6A00CA15DB0519F1411551056105710589F09E
:101E7A00CB01BA01A30192010E943B15CA01A62F08
:101E8A00B72F605D6A9341E0C41AD108A901BC0169
:101E9A00E4CF98012C0D3D1D121613064CF31C14A9
:101EAA001D0434F48114910419F702C080E090E013
:101EBA00AB2B31F4F701208131812F7E20833183CE
:0A1ECA00CDB7DEB7E0E10C941D1661
:101ED400AF92BF92CF92DF92EF92FF920F931F9334
:101EE400E82F20912B4030912C4040912D4050916F
:101EF4002E4060912F4070913040809131409091FC
:101F04003240A0902340B0902440C0902540D0900F
:101F14002640E0902740F0902840009129401091FD
:101F24002A400E942317AE2EB12CC12CD12CE12CB7
:101F3400F12C00E010E00E942C1719F110F17091BF
:101F44002B4060912C4050912D4040912E40309177
:101F54002F402091304090913140809132407093D5
:101F6400234060932440509325404093264030936F
:101F74002740209328409093294080932A4081E071
:101F840001C080E01F910F91FF90EF90DF90CF9000
:061F9400BF90AF9008951C
:101F9A00CF93DF93CDB7DEB72797CDBFDEBF60E023
:101FAA0088E30E944A168CEA80930809E0E0F9E087
:101FBA00858185FD0AC0858182FD07C0858183FDF3
:101FCA0004C085818370833099F78091050984FF65
:101FDA0005C06CE676E080E00E943517E0E0F9E0A3
:101FEA0084818360848361E088E30E944A16DE016B
:101FFA0011969E0123553F4FE0E0F9E092E085817A
:10200A0085FD1CC0858182FD07C0858183FD04C0D2
:10201A0085818370833099F780858D93A217B307E2
:10202A0011F09483ECCF87E0809304091F82CE01DC
:10203A0001960E942F1008C09483E1CF80858D936A
:10204A00A217B307C9F7EFCF2796CDBFDEBFDF913F
:04205A00CF91089585
:10205E000F931F93CF93DF93FC01648180E1689F00
:10206E00B0011124858182958F70682B83818F70CA
:10207E0090E0982F88279295907F682B792B80E09F
:10208E0090E00E94EA1220E030E040E857E30E9420
:10209E00AC1720E030E048E453E40E94AC1720E097
:1020AE0030E048E452E40E946917062F172FD82F0C
:1020BE00C92F9F938F937F936F9386E596E0A0E051
:1020CE00AF939F938F930E94B915602F712F8D2F11
:1020DE009C2F0E947017D62FC72F7F936F9382E687
:1020EE0096E0A0E0AF939F938F930E94B9158D2F2A
:1020FE009C2F0E941A178DB79EB70C968DBF9EBF50
:0A210E00DF91CF911F910F9108950A
:10211800A2E0B0E0E2E9F0E10C94D6155C016B01B5
:10212800FB0122813381848095808081918189831C
:102138009A836680778037FD03C08D7F89839A8371
:10214800FA014081518162817381CE0101967C013F
:1021580008E010E09401C6010E94050F298124FFC0
:1021680006C00197F301E80FF91F20E320832981B6
:1021780023FF06C00197F301E80FF91F20E220832F
:10218800E980FA80F6012085318521503109281B24
:10219800390B860D971DAC0160E88401C5010E94CA
:1021A80086119C01F5018081918190FF06C0F6019E
:1021B80082819381821793070CF4C9012296EEE07D
:0421C8000C941F163E
:1021CC00CF92DF92EF92DC0190E0292F30E0220FCA
:1021DC00331F6901032E000CEE086E2DA601465F1D
:1021EC00574F6F4F6A01E62EFA015E2D0E948C1735
:1021FC00862F61110EC02F5F3F4F032E000C440B36
:10220C00265F374F4F4FF901542F0E948C17862FA2
:10221C0025C0CD90DD90EC901297F6015E2D0E94BA
:10222C008C17861316C02F5F3F4F032E000C440BE8
:10223C00265F374F4F4FF901542F0E948C17962F62
:10224C005FEFC51AD50AE50ACD92DD92EC92129792
:10225C0001C09F5F9B3008F4B8CF892FEF90DF90BF
:04226C00CF90089572
:102270001F920F920FB60F9211240BB60F922F934D
:102280003F934F935F936F937F938F939F93AF93FE
:10229000BF93EF93FF9320912B4030912C404091BE
:1022A0002D4050912E4060912F4070913040809190
:1022B000314090913240A1E00E94D91620932B40EA
:1022C00030932C4040932D4050932E4060932F40EC
:1022D0007093304080933140909332400E94D114EB
:1022E00081E080934301FF91EF91BF91AF919F9166
:1022F0008F917F916F915F914F913F912F910F90AF
:0C2300000BBE0F900FBE0F901F901895A1
:10230C006F927F928F92AF92BF92CF92DF92EF92A9
:10231C00FF920F931F93CF93DF935C013A01862EAC
:10232C00E901670181E0C822DD24E0FC03C020172D
:10233C00310758F09E01682DA301C5010E940A14B3
:10234C00C017D10710F0CE0118C07801EC1AFD0AA5
:10235C00E114F10449F0B50180E290E00E941A12F8
:10236C0081E0E81AF108F4CFCD2831F49E01682DF4
:10237C00A301C5010E940A14C801DF91CF911F91DE
:10238C000F91FF90EF90DF90CF90BF90AF908F9018
:06239C007F906F90089590
:1023A200A3E8B0E0E7EDF1E10C94D8155C01490136
:1023B200CF57DF4F488359836A83C158D040C12C1D
:1023C200D12CCF57DF4F9881C158D040CE57DF4F25
:1023D2008881C258D040CD57DF4F5881C358D04072
:1023E200E92FF82F0E948C176623E9F07401860109
:1023F20020E830E0AE014F5F5F4FBE016F577F4F65
:10240200C5010E94ED078C0D9D1D8C159D054CF498
:102412008FE490E080930040909301408FEF9FEF14
:1024220003C06C01CECFC601CD57DF4FECE00C9458
:02243200211671
:102434000F931F93CF93DF93DB012D913C91119761
:1024440030FF25C017964D915C91189715962D91E4
:102454003C9116974217530778F41296ED91FC912C
:102464001397808312962D913C9113972F5F3F4FC2
:1024740012962D933C93139717962D913C91189790
:102484002F5F3F4F17962D933C93189715C01D96B9
:10249400ED91FC911E97309719F48FEF9FEF0CC0CC
:1024A4008B01EC010995892BC1F7F801878190858F
:1024B400019687839087CE01DF91CF911F910F9171
:0224C400089579
:1024C600A2E0B0E0E9E6F2E10C94D6155C016B01FE
:1024D600FB0122813381848095808081918189836B
:1024E6009A836680778037FD03C08D7F89839A83C0
:1024F600FA014081518162817381CE0101967C018E
:102506000AE010E09401C6010E94050FE980FA80F6
:10251600F6012085318521503109281B390B860D9E
:10252600971DAC0160E88401C5010E9486119C01DB
:10253600F5018081918190FF06C0F6018281938129
:10254600821793070CF4C9012296EEE00C941F162D
:10255600CF93DF93DC01EB012D913D914C911297C6
:10256600F901542F0E948C176A3221F080E090E026
:102576007AE00FC02F5F3F4F4F4F2D933D934C9303
:10258600E881F981CF0102968883998380819181C0
:102596001BC02D913D914C911297F901542F0E9429
:1025A6008C1760536A3080F4789FF001799FF00DA4
:1025B6001124CF01860F911D2F5F3F4F4F4F2D9353
:0E25C6003D934C931297E5CFDF91CF9108958E
:1025D400E89409C097FB3EF49095809570956195B9
:1025E4007F4F8F4F9F4F9923A9F0F92F96E9BB276F
:1025F4009395F695879577956795B795F111F8CFEB
:10260400FAF4BB0F11F460FF1BC06F5F7F4F8F4F55
:102614009F4F16C0882311F096E911C0772321F04B
:102624009EE8872F762F05C0662371F096E8862FE3
:1026340070E060E02AF09A95660F771F881FDAF73A
:0A264400880F9695879597F9089581
:10264E006F927F928F92CF92DF92EF92FF920F93C3
:10265E001F93CF93DF936C01FB013901842EC801C8
:10266E00C281D38104811581E080F180232B242B3C
:10267E0031F420E3622E28E0722E20E0822E0097A5
:10268E0021F4882DB3010E949916D7FD04C0C817F6
:10269E00D90708F4CE019C01682DA301C6010E9442
:1026AE008611DF91CF911F910F91FF90EF90DF90E8
:0A26BE00CF908F907F906F900895E9
:1026C800CF92DF92EF92CF93DF93262F982FEA01D4
:1026D800E62FF72F582F0E948C17862F4D855E8581
:1026E800452B21F0C22ED72EE92E0FC08FEF9FEF7A
:1026F8001DC009952FEFC21AD20AE20A892BB1F739
:10270800F6015E2D0E948C17862FED85FE85BE0191
:102718008111EFCF8AE0099521E030E0892B11F48F
:1027280020E030E088279927821B930BDF91CF9117
:08273800EF90DF90CF900895AF
:102740001F920F920FB60F9211240BB60F922F9378
:102750003F934F935F936F937F938F939F93AF9329
:10276000BF93EF93FF930E94E70C60933340709305
:102770003440809335409093364081E080934340CD
:102780008093060BFF91EF91BF91AF919F918F9135
:102790007F916F915F914F913F912F910F900BBE61
:0A27A0000F900FBE0F901F901895C8
:1027AA00CF92DF92EF92FF920F931F93FA0168176D
:1027BA00790710F56B01E12CF12C9C014817590798
:1027CA0008F49A01C901A0E0B0E09C01AD012C19FE
:1027DA003D094E095F09AFEFB0E00E94F0168F0184
:1027EA0020E030E0A90198012C193D094E095F0942
:1027FA000E943316C90102C080E090E01F910F9138
:0A280A00FF90EF90DF90CF9008954B
:102814006F927F928F92CF92DF92EF920F931F93DA
:10282400CF93DF938C016A01E62EE9013A01862EEB
:10283400620E731E811C37FD8A94C614D704E80403
:1028440081F0F6015E2D0E948C17862FB801082EA8
:10285400000C990B0E941A128FEFC81AD80AE80AC2
:10286400ECCFCE01DF91CF911F910F91EF90DF90CC
:0A287400CF908F907F906F90089531
:10287E00E0E2F4E082E08283C1E0C183E0E6F8E0CA
:10288E0083E896E0808791878681806C8683E091CD
:10289E003F40F091404082E090E4808391830E941B
:1028AE0099170E941017E0E0F4E08CE0818398E025
:1028BE0093878487E0E0F9E0C38387E08683C5834E
:1028CE000E947D15789481E00E946A0F8823D9F3C7
:0628DE000E94CD0FF8CFAF
:1028E400EF92FF920F931F93CF93DF9303E110E4D2
:1028F40083E290E4F80111921192E817F907D9F7ED
:10290400C0E0D0E06894EE24E1F8FF24F4F8F70185
:10291400808181FD08C0BE0180E80E94501790E0CC
:10292400F8018083918321960E5F1F4FC830D10533
:1029340071F7DF91CF911F910F91FF90EF90089560
:102944000E94211588F09F5798F0B92F9927B75105
:10295400B0F0E1F0660F771F881F991F1AF0BA953F
:10296400C9F714C0B13091F00E948517B1E0089501
:102974000C948517672F782F8827B85F39F0B93FF3
:10298400CCF3869577956795B395D9F73EF49095F2
:0E2994008095709561957F4F8F4F9F4F0895EE
:1029A2000F931F93CF93DF9380913D400E946A0F54
:1029B2008823A9F08091021003E110E4C0E0D0E086
:1029C200F801608171816F5F7F4F619371938F0115
:1029D200CE010E9403162196C830D10589F7DF91F6
:0829E200CF911F910F910895A0
:1029EA00990F0008550FAA0BE0E8FEEF1616170616
:1029FA00E807F907C0F012161306E407F50798F07E
:102A0A00621B730B840B950B39F40A2661F0232B96
:102A1A00242B252B21F408950A2609F4A140A69512
:082A2A008FEF811D811D08954D
:102A320057FD9058440F551F59F05F3F71F047956D
:102A4200880F97FB991F61F09F3F79F08795089552
:102A5200121613061406551FF2CF4695F1DF08C071
:102A6200161617061806991FF1CF8695710561058E
:042A72000894089527
:102A7600A1E21A2EAA1BBB1BFD010DC0AA1FBB1F7C
:102A8600EE1FFF1FA217B307E407F50720F0A21BEE
:102A9600B30BE40BF50B661F771F881F991F1A945B
:102AA60069F760957095809590959B01AC01BD0185
:042AB600CF010895AF
:102ABA00FA0160387105CCF0623871051CF0633890
:102ACA00710599F4A081B1819D012C5F3F4F20834C
:102ADA0031834D915D916D917C91FC0140835183CD
:102AEA006283738381E090E0089580E090E0089526
:102AFA0087E08093610480E7809341048BE08093B0
:102B0A00E605A0E0BAE08FE990E096968D939C9353
:102B1A009797E0E4FAE086A397A383E711968C934C
:0C2B2A001197818381E08C9380830895D3
:102B360097FB10F8169400080F93083098F0085089
:102B4600232F342F452F562F672F782F892F902D1F
:102B5600F4CF0594979587957795679557954795FB
:0C2B6600379527950A95AAF70F9108955E
:102B7200A0E0B0E0EFEBF5E10C94E2159E012B5FD3
:102B82003F4FF9014191519161919F01E0913F4085
:102B9200F0914040808191810E94EB15E2E00C941B
:022BA2002B16F0
:102BA4002F923F924F925F926F927F928F929F9259
:102BB400AF92BF92CF92DF92EF92FF920F931F9347
:102BC400CF93DF93CDB7DEB7CA1BDB0BCDBFDEBF20
:022BD400099462
:102BD600A2E0B0E0E1EFF5E10C94E0158C01298369
:102BE6003A839E012F5F3F4F0E94D111F801208149
:102BF60024FF02C08FEF9FEF2296E4E00C94291683
:102C0600262FAF93BF93E0E0F0E1328131FDFDCF97
:102C16003DE934BF33E13083DC01A050BC4E2C9338
:102C26003DE934BF20E020830196BF91AF9108951E
:102C36002A88398848885F846E847D848C849B8446
:102C4600AA84B984C884DF80EE80FD800C811B8154
:102C5600AA81B981CE0FD11DCDBFDEBFED0108958A
:102C6600052E97FB1EF400940E94591757FD07D0B6
:102C76000E943B1507FC03D04EF40C94591750954F
:0E2C86004095309521953F4F4F4F5F4F089579
:102C9400880F682B60930709E0E0F9E0858185FDE2
:102CA4000AC0858182FD07C0858183FD04C08581BA
:082CB4008370833099F7089545
:102CBC0097FB072E16F4009407D077FD09D00E94DD
:102CCC00721607FC05D03EF4909581959F4F0895A0
:082CDC00709561957F4F08958A
:102CE400AA1BBB1B51E107C0AA1FBB1FA617B7072E
:102CF40010F0A61BB70B881F991F5A95A9F780954A
:082D04009095BC01CD0108957A
:102D0C0021E02093400492E09093E605E0E0FAE0A5
:102D1C0093E491834FE950E046A357A390E084A736
:062D2C0095A72083089525
:102D32009B01482FA82FCB01FC015A2F0E948C1710
:102D4200662319F00196A11DF7CF642FA901841BF8
:042D5200950B089540
:102D5600092E0394000C11F4882352F0BB0F40F4A3
:102D6600BF2B11F460FF04C06F5F7F4F8F4F9F4FE3
:022D76000895BE
:102D7800A29FB001B39FC001A39F700D811D1124B4
:0E2D8800911DB29F700D811D1124911D0895A3
:102D96009A01462FDC01F901542F0E948C176D937E
:0C2DA6002F5F3F4F4F4F6111F6CF089593
:102DB2000024A7FD00942A0F301D401D501D601DE8
:082DC200701D801D901D089595
:102DCA00E0E4F1E081E080832FEF33E0228733876C
:062DDA0087838283089547
:102DE0000E94BC16A59F900DB49F900DA49F800DCE
:062DF000911D112408955D
:102DF600EC010E94B8170E94B717CE010E94B917BE
:062E0600CE010E94B51789
:102E0C00E0E6F8E0948195FFFDCF8093620880E0C6
:042E1C0090E00895A5
:102E2000E0E0FBE081E0858391E4948395E0918389
:042E300080830895FE
:102E340044E650E06AE070E00E94D5130E948616D2
:022E44000895EF
:102E46002A193B094C095D096E097F09800B910B14
:022E56000895DD
:102E58002A153B054C055D056E057F058007910722
:022E68000895CB
:102E6A00E0913F40F0914040408151810E946413BB
:022E7A000895B9
:102E7C00FC01480F591FE417F50711F06193FBCFC4
:022E8C000895A7
:102E8E009C01215631092A31310510F48F7599278D
:022E9E00089595
:102EA000CB0103D0808199270895FC01E050FC4EAE
:022EB000089583
:102EB20090958095709561957F4F8F4F9F4F0895A4
:102EC2009C01215431092A31310508F480620895A8
:0E2ED2005058BB27AA270E949E0E0C94AB16E8
:0E2EE0000E94A2146894B1110C9486170895F4
:0E2EEE0000240A941616170618060906089501
:0E2EFC0000240A941216130614060506089503
:0E2F0A00E894BB2766277727CB0197F9089537
:0E2F180057FD03C05BBF679108956081089567
:0C2F260097F99F6780E870E060E0089574
:0A2F32000E94E5160E947214089533
:0A2F3C000E94F51408F481E00895E6
:0A2F46000E94F51408F48FEF0895BF
:082F50000E94580D0C94AB1611
:082F58000E94340E0C94AB162C
:062F60009FEF80EC0895D4
:042F66000C940000C7
:042F6A000E94B3000E
:022F6E000895C4
:022F70000895C2
:022F72000895C0
:102F7400030000000000000000000000000617002D
:012F8400004C
:022F8500100E2C
:022F87004140C7
:00000001FF
